:0E05FC00446174653A200054696D653A200030
:1005DC000E080017000C001F0017003B003200062D
:100201001205C812061E7BFF7A0579FC7D017F016C
:100211001205547BFF7A0679037D017F0212055492
:10022100120104120003751A02AB0DAA0C7D077F9F
:10023100011205957B2F7D097F01120614751A02A3
:10024100AB0BAA0A7D0A7F011205957B2F7D0C7FDE
:1002510001120614751A02AB09AA087D0D7F01125D
:100261000595751A02AB0FAA0E7D077F021205953F
:100271007B3A7D097F02120614751A02AB11AA108E
:100281007D0A7F021205957B3A7D0C7F02120614CE
:10029100751A02AB13AA127D0D7F02120595808398
:07061E00C2B5C2B6C2B4224E
:0303C100EB2DFD24
:0403C4008F16A905E2
:1003C800D2B5E4FBFAAF037E007401A807088005E4
:1003D800C333CE33CED8F9FFEF551624FF92B4D2EB
:1003E800B6C2B60BBB00010AEB64084A70D7E4FA40
:1003F800FBAF037E007401A807088005C333CE3322
:10040800CED8F9FFE9FDEF5D24FF92B4D2B6C2B6AB
:0D0418000BBB00010AEB64084A70D6C2B5A8
:0104250022B4
:02042600AD0720
:10042800E4F9430501D2B5FB7E007401A8030880F6
:1004380005C333CE33CED8F9FFEDF582EF558224CC
:10044800FF92B4C2B6D2B60BBB08DDD2B4E4FBD27D
:10045800B6C2B630B40DA8037401088002C333D8FD
:0D046800FC42010BBB08E8C2B5C2B4AF01F5
:010475002264
:10010400E4FD7F8E1203C4AE08AF097C007D0A12A1
:1001140002E0EFC454F0FBAE08AF097C007D0A1284
:1001240002E07F8C1203C1AE0AAF0B7C007D0A1281
:1001340002E0EFC454F0FBAE0AAF0B7C007D0A1260
:1001440002E07F881203C1AE0CAF0D7C007D0A1261
:1001540002E0EFC454F0FBAE0CAF0D7C007D0A123C
:1001640002E0EB2DFD7F861203C4AE0EAF0F7C00C0
:100174007D0A1202E0EFC454F0FBAE0EAF0F7C0018
:100184007D0A1202E0EB2DFD7F841203C4AE10AF92
:10019400117C007D0A1202E0EFC454F0FBAE10AFF4
:1001A400117C007D0A1202E0EB2DFD7F821203C454
:1001B400AE12AF137C007D0A1202E0EFC454F0FBD0
:1001C400AE12AF137C007D0A1202E0EB2DFD7F809E
:1001D4001203C4AE14AF157C007D0A1202E0EFC412
:1001E40054F0FBAE14AF157C007D0A1202E0EB2D37
:0D01F400FD7F8A1203C47D807F8E0203C44C
:100003007F8C120426AB077A00EAC4F854F0C86860
:10001300FEEBC4540F48FF7C007D0A1202CEEB5462
:100023000F2FF509EC3EF5087F88120426AB07EA8B
:10003300C4F854F0C868FEEBC4540F48FF7D0A129D
:1000430002CEEB540F2FF50BEC3EF50A7F8612041C
:1000530026AB07EAC4F854F0C868FEEBC4540F4853
:10006300FF7D0A1202CEEB540F2FF50DEC3EF50C7B
:100073007F84120426AB07EAC4F854F0C868FEEB89
:10008300C4540F48FF7D0A1202CEEB540F2FF50F15
:10009300EC3EF50E7F82120426AB07EAC4F854F057
:1000A300C868FEEBC4540F48FF7D0A1202CEEB541E
:1000B3000F2FF511EC3EF5107F80120426AB07EAF3
:1000C300C4F854F0C868FEEBC4540F48FF7D0A120D
:1000D30002CEEB540F2FF513EC3EF5127F8A120478
:1000E30026AB07EAC4F854F0C868FEEBC4540F48C3
:1000F300FF7D0A1202CEEB540F2FF515EC3EF514DB
:0101030022D9
:0605ED00C2A58F80D2A719
:0805F3007F027EEFDEFEDFFC5B
:0105FB0022DD
:0A060A00C2A61205EDC2A70205F317
:10057700CFCDCFCECCCE1202E07C007D0A1202E0B6
:04058700ED2430FF30
:0A058B00D2A61205EDC2A70205F387
:1005B200AE07BE0106ED1444808006BE0207ED249C
:0605C200BFFF12060A2231
:1005C8007F3812060A7F0C12060A7F0612060A7F77
:0405D8000102060A0C
:0A061400AC031205B2AF0402058B1F
:060554008B168A178918BE
:10055A001205B2E4FDAB16AA17A9188D827583009D
:0C056A001202A1FF600612058B0D80E953
:010576002262
:0C0521007F0AEA24FFFDE434FFFC7E00AA
:08052D008E1B8F1C8C1D8D1E1E
:100535007F017E00E4FBEBC3951EE51D6480F87426
:0E0545008098500AAC1BAD1C1202CE0B80E851
:010553002285
:040595008A188B191C
:100599001205B2AA1AEAD39400400D120521AC182B
:0805A900AD191205771A80ED6F
:0105B1002227
:100476001205B2C3EA64809480400B7F2B12058B71
:100486008A248B25800E7F2D12058BC3E49BF525D0
:10049600E49AF524AA23EAD39400400D120521AC70
:0904A60024AD251205771A80ED42
:0104AF00222A
:0404B0008A288B29E2
:1004B4001205B2AA2AEAD3940040297F1012052318
:1004C400AC28AD29CFCDCFCECCCE1202E0EF540F65
:1004D400FEC3940AEE5004243080022437FF120530
:0404E4008B1A80D11E
:0104E80022F1
:0404E9008A2D8B2E9F
:1004ED001205B2AA2FEAD394004028EA24FFFDE4B6
:1004FD0034FFFC7F027E0012052DAC2DAD2ECFCD2D
:10050D00CFCECCCE1202E0EF54012430FF12058B7A
:03051D001A80D26F
:0105200022B8
:03000000020335C3
:0C033500787FE4F6D8FD75812F02037C70
:1002A100BB010CE58229F582E5833AF583E0225012
:1002B10006E92582F8E622BBFE06E92582F8E2225C
:0D02C100E58229F582E5833AF583E4932276
:1002CE00EF8DF0A4A8F0CF8CF0A428CE8DF0A42E44
:0202DE00FE22FE
:1002E000BC000BBE0029EF8DF084FFADF022E4CC02
:1002F000F875F008EF2FFFEE33FEEC33FCEE9DECCB
:10030000984005FCEE9DFE0FD5F0E9E4CEFD22ED10
:10031000F8F5F0EE8420D21CFEADF075F008EF2F5A
:10032000FFED33FD4007985006D5F0F222C398FD4B
:050330000FD5F0EA22E8
:10034100020201E493A3F8E493A34003F68001F2CF
:1003510008DFF48029E493A3F85407240CC8C333BD
:10036100C4540F4420C8834004F456800146F6DF8C
:10037100E4800B01020408102040809005DCE47E3B
:10038100019360BCA3FF543F30E509541FFEE49381
:10039100A360010ECF54C025E060A840B8E493A348
:1003A100FAE493A3F8E493A3C8C582C8CAC583CA73
:1003B100F0A3C8C582C8CAC583CADFE9DEE780BE2B
:0105EC00000E
:00000001FF
