:0E00FE0002090000020B0000010D00010800C5
:03000B0002009A56
:10009A00C0E0C0D0050AE50A70020509C394C4E5A8
:1000AA000964809489400BB2A0750D017509007529
:1000BA000A00050CE50C7002050BC394A8E50B6455
:1000CA008094E1400BB2A1750B00750C0075080114
:0500DA00D0D0D0E0329F
:1000DF0075A882758902758CE9D28CE50D6005E4EF
:0F00EF00F50DB2A2E50860F3E4F508B2A380ECCA
:0300000002000EED
:0C000E00787FE4F6D8FD75810D020055E6
:10001A000200DFE493A3F8E493A34003F68001F21D
:10002A0008DFF48029E493A3F85407240CC8C333E7
:10003A00C4540F4420C8834004F456800146F6DFB6
:10004A00E4800B01020408102040809000FEE47E48
:10005A00019360BCA3FF543F30E509541FFEE493AB
:10006A00A360010ECF54C025E060A840B8E493A372
:10007A00FAE493A3F8E493A3C8C582C8CAC583CA9D
:10008A00F0A3C8C582C8CAC583CADFE9DEE780BE55
:01010C0000F2
:00000001FF
