:0400030002080000EF
:03000B0002009A56
:10009A00C0E0758CDB758AFF0509E5097002050861
:1000AA00640145087008C2A2C2A3C2A4B2A0E509AD
:1000BA00640245087006D2A2C2A3C2A4E509640379
:1000CA0045087006C2A2D2A3C2A4E5096404450881
:1000DA007006D2A2D2A3C2A4E50964054508700637
:1000EA00C2A2C2A3D2A4E509640645087006D2A238
:1000FA00C2A3D2A4E509640745087006C2A2D2A326
:10010A00D2A4E50964084508700AD2A2D2A3D2A4EF
:07011A00F508F509D0E03201
:1001210075A882758901758CDB758AFFD28C80FE7A
:0300000002000EED
:0C000E00787FE4F6D8FD758109020055EA
:10001A00020121E493A3F8E493A34003F68001F2DA
:10002A0008DFF48029E493A3F85407240CC8C333E7
:10003A00C4540F4420C8834004F456800146F6DFB6
:10004A00E4800B0102040810204080900003E47E43
:10005A00019360BCA3FF543F30E509541FFEE493AB
:10006A00A360010ECF54C025E060A840B8E493A372
:10007A00FAE493A3F8E493A3C8C582C8CAC583CA9D
:10008A00F0A3C8C582C8CAC583CADFE9DEE780BE55
:0100070000F8
:00000001FF
