:10080000C2A2C2A3C2A475803F12087AC2A2C2A328
:10081000C2A475800612087AC2A2C2A3C2A47580BF
:100820005B12087AC2A2C2A3C2A475804F12087AD2
:10083000C2A2C2A3C2A475806612087AC2A2C2A3D1
:10084000C2A475806D12087AC2A2C2A3C2A4758028
:100850007D12087AC2A2C2A3C2A475800712087AC8
:10086000C2A2C2A3C2A475807F12087AC2A2C2A388
:0A087000C2A475806F12087A80861A
:10087A00E4FFFE758901758AFD758C4BD28C308D2B
:10088A00FDC28CC28D0FBF00010EEF640A4E70E3E9
:01089A00223B
:0300000002089B58
:0C089B00787FE4F6D8FD758107020800A4
:00000001FF
