:0E007C0048656C6C6F2C20576F726C6421000D
:0E006E001200287BFF7A00797C12000380FECE
:100028007F3812008A7F0E12008A7F0112008A7FB1
:0E0038000612008A7F0C12008A7F8002008A66
:0E008A008F80C2A6C2A5D2A712005FC2A72215
:0E0098008F80D2A6C2A5D2A712005FC2A722F7
:100003008B088A09890AAB08AA09A90A1200466063
:1000130013050AE50A7002050914F9120046FF12D6
:05002300009880E222BC
:0E005F00E4FFFE0FBF00010EBE17F8BF71F5E3
:01006D002270
:030000000200A655
:0C00A600787FE4F6D8FD75810A02006E38
:10004600BB010689828A83E0225002E722BBFE02B8
:09005600E32289828A83E49322EB
:00000001FF
