:0603300004200286464590
:0800E2008F0B8E0A8D098C08BA
:1000EA00751E00751F07E4FFFEFDFCAB0BAA0AA9EB
:1000FA0009A808D31200D14044E47B0AFAF9F8AF00
:10010A000BAE0AAD09AC0812003FAE02AF03E51F01
:10011A0025E0240EF8A60608A607AF0BAE0AAD091D
:10012A00AC08E47B0AFAF9F812003F8F0B8E0A8DAD
:10013A00098C08E51F151F70AD151E80A9E50D2550
:10014A00E0240EF8E6FE08E6FF4E700475803F22B2
:10015A00EF64014E700475800622EF64024E70044B
:10016A0075805B22EF64034E700475804F22EF6442
:10017A00044E700475806622EF64054E7004758023
:10018A006D22EF64064E700475807D22EF64074E7F
:10019A00700475800722EF64084E700475807F2210
:0901AA00EF64094E700375806FCB
:0101B3002229
:1001B400D2A2D2A3D2A4AF23AE22AD21AC20E4F5C7
:1001C4000CF50D1200E212030FC2A2D2A3D2A4AF07
:1001D40023AE22AD21AC20750C00750D011200E296
:1001E40012030FD2A2C2A3D2A4AF23AE22AD21AC7C
:1001F40020750C00750D021200E212030FC2A2C298
:10020400A3D2A4AF23AE22AD21AC20750C00750D92
:10021400031200E212030FD2A2D2A3C2A4AF23AEF0
:1002240022AD21AC20750C00750D041200E21203FE
:100234000FC2A2D2A3C2A4AF23AE22AD21AC2075BB
:100244000C00750D051200E212030FD2A2C2A3C264
:10025400A4AF23AE22AD21AC20750C00750D06129F
:1002640000E212030FC2A2C2A3C2A4AF23AE22AD06
:0F02740021AC20750C00750D071200E202030F7C
:10030F00E4FFFE758901758AFD758C4BD28C308D9B
:10031F00FDC28CC28D0FBF00010EEF640A4E70E359
:01032F0022AB
:0300000002028376
:0C028300787FE4F6D8FD7581230202CAE2
:1000030075F008758200EF2FFFEE33FECD33CDCCB4
:1000130033CCC58233C5829BED9AEC99E582984037
:100023000CF582EE9BFEED9AFDEC99FC0FD5F0D614
:10003300E4CEFBE4CDFAE4CCF9A88222B800C1B93E
:100043000059BA002DEC8BF084CFCECDFCE5F0CB7C
:10005300F97818EF2FFFEE33FEED33FDEC33FCEBB5
:1000630033FB10D703994004EB99FB0FD8E5E4F970
:10007300FA227818EF2FFFEE33FEED33FDEC33FC5D
:10008300C933C910D7059BE99A4007EC9BFCE99A51
:10009300F90FD8E0E4C9FAE4CCFB2275F010EF2F96
:1000A300FFEE33FEED33FDCC33CCC833C810D70796
:1000B3009BEC9AE899400AED9BFDEC9AFCE899F8D1
:0E00C3000FD5F0DAE4CDFBE4CCFAE4C8F92264
:1000D100EB9FF5F0EA9E42F0E99D42F0E89C45F085
:0100E10022FC
:10028F000201B4E493A3F8E493A34003F68001F2D0
:10029F0008DFF48029E493A3F85407240CC8C33370
:1002AF00C4540F4420C8834004F456800146F6DF3F
:1002BF00E4800B0102040810204080900330E47E9C
:1002CF00019360BCA3FF543F30E509541FFEE49334
:1002DF00A360010ECF54C025E060A840B8E493A3FB
:1002EF00FAE493A3F8E493A3C8C582C8CAC583CA26
:1002FF00F0A3C8C582C8CAC583CADFE9DEE780BEDE
:0103360000C6
:00000001FF
