:1009350047656E65726174652050696E00456E7419
:1009450065722050617373776F726400446F6F72C4
:1009550020556E6C6F636B00446F6F72204C6F6334
:100965006B0053797374656D2044697361626C65BE
:10097500640057726F6E672050617373776F72648E
:1009850000456E746572204F6C642050696E00538B
:0E099500797374656D2044697361626C65004E
:0F0C2F0001460001440001210A014E0001390075
:100C6600758901758CB7758AFED28CD2AFD2A9224E
:03000B00020BD411
:100BD400C0E0B2A030A009E53BF58C853C8A8007D3
:0A0BE400E536F58C85378AD0E03243
:1008C700E4FBFA79347843120117E4FBFA792078CC
:1008D7004112000E8F0C8E0B8D0A8C09750D487511
:1008E7000E01AC0DAD0EE41201B9E4FBFA79C8783C
:1008F70042120117AB0CAA0BA90AA80912000E1283
:1009070001F28E3B8F3CC3E50E953CF537E50D951F
:100917003BF536C374FF953CF53C74FF953BF53BBF
:0D092700C374FF9537F53774FF9536F5362C
:0109340022A0
:100B37001206D374222546F8A60774222546F8E63E
:100B4700FDAF46120B9E74222546F8E6FBAD467FA5
:040B570001020C8308
:10039A00120C07120C66020679E50814604C1470F8
:1003AA00030205621470030205B6240370EB7FD4BE
:1003BA00120BB98F35E535F4702D7BFF7A09793543
:1003CA00FDFF120AECE546C394065007120B3705E7
:1003DA004680C67DAA7FD4120B9EE4F546750801B5
:1003EA007FB8120AC680B2020590120C9F7FFE12D5
:1003FA000BB98F34E534640670030205A0E4F544B2
:10040A00AF44120BB974482544F8A6070544E544DD
:10041A00C3940640EBAF4DE4FCFDFE7BA07A8679DF
:10042A0001F81202E8E54CC454F02FFFE54B75F0D1
:10043A00E8A42FFFE54A75F064A42FFFE54975F09B
:10044A000AA42F2548F5387BFF7A097942E4FDFF93
:10045A00120AECE4F5441206D38F43E543B463056C
:10046A00750803801E742E2544F8A643742E25446D
:10047A00F8E6FBAD447F01120C830544E544C394BE
:10048A000640D37FD07E07120B5BAF33E4FCFDFE40
:10049A007BA07A867901F81202E8E532C454F02F7B
:1004AA00FFE53175F0E8A42FFFE53075F064A42F5D
:1004BA00FFE52F75F00AA42F252EF547E5086403FA
:1004CA0070030203A3E5386547600302055C120C5A
:1004DA009F7BFF7A097951E4FDFF120AEC7F057EC2
:1004EA00001209E87FE87E03120B5B7F007E007D25
:1004FA00007C001208C77FF47E01120B5BE4F5440E
:10050A001521E521FB7A00750D017D067F0112098F
:10051A00A37FA0120AC60544E544C3940A40E17FBA
:10052A00057E001209E8120C9F7BFF7A09795DE4C7
:10053A00FDFF120AEC7F007E007D347C431208C75F
:10054A007FD07E07120B5B120C9FE4F54E75210AD1
:10055A0080347508020203A3E54EC39405502D1298
:10056A000C9F7BFF7A097977E4FDFF120AECE54ECE
:10057A00FB7A00750D017D057F011209A37F0A7EB2
:10058A00001209E8054E7508010203A37D067FFAE9
:10059A00120B9E120C9F7BFF7A097967E4FDFF120A
:1005AA000AEC7F887E131209E80203A3120C9F7BD0
:1005BA00FF7A097986E4FDFF120AECE4F544AF44B8
:1005CA00120BB9743D2544F8A6070544E544C394C3
:1005DA000640EBAF42E4FCFDFE7BA07A867901F887
:1005EA001202E8E541C454F02FFFE54075F0E8A493
:1005FA002FFFE53F75F064A42FFFE53E75F00AA4CE
:10060A002F253DF53AE4F5441206D374282544F81B
:10061A00A60774282544F8E6FBAD447F01120C8333
:10062A000544E544C3940640DF7FD07E07120B5B86
:10063A00AF2DE4FCFDFE7BA07A867901F81202E870
:10064A00E52CC454F02FFFE52B75F0E8A42FFFE545
:10065A002A75F064A42FFFE52975F00AA42F25282E
:10066A00F545B53A107DFF7FD4120B9E120C9FE41C
:10067A00F5080203A3E54EC39403502D120C9F7B89
:10068A00FF7A097977E4FDFF120AECE539FB7A0073
:10069A00750D017D057F011209A37F0A7E001209EB
:1006AA00E805397508030203A37D067FFA120B9E3B
:1006BA00120C9F7BFF7A097994E4FDFF120AEC7F02
:0906CA00887E131209E80203A363
:100C07007F38120C427F0C120C427F01120C427F7C
:040C170080020C4209
:100C42008F80C2A5C2A6120AA0C2A77F0A7E000296
:020C52000AA6F0
:100C54008F80C2A5D2A6120AA0C2A77F0A7E000274
:020C64000AA6DE
:060A4E008B138A148915C8
:100A5400E4F516F517AB13AA14A9158517828516A4
:100A640083120273FF600D120C540517E51770E52D
:040A7400051680E102
:010A7800225B
:100C1B00EF7007ED2480F50F8005ED24C0F50FAFC5
:040C2B000F020C4266
:060AA000D2A77F0A7E00D0
:100AA600E4FDFCC3ED9FEC9E5015E4FBFA0BBB0086
:0F0AB600010AEB64704A70F50DBD00010C80E47D
:010AC500220E
:100AC600E4FDFCEFFBC3ED9BEC94005018758D4BD9
:100AD600758BFDC28FD28E308FFDC28FC28E0DBD3B
:050AE60000010C80DEA0
:010AEB0022E8
:100B5B00E4FDFCC3ED9FEC9E5018758CFC758A640C
:100B6B00C28DD28C308DFDC28DC28C0DBD00010C9F
:020B7B0080E117
:010B7D002255
:050C9F007F01020C4280
:080A79008E0F8F108C118D12FD
:100A81007F017E00E4FBEBC39512E5116480F874ED
:0E0A91008098500AAC0FAD101202A00B80E846
:010A9F002234
:0409A3008A0B8B0C24
:1009A700120C1B850D0EE50ED39400402FE50E2487
:1009B700FFFDE434FFFC7F0A7E00120A79AC0BAD21
:1009C7000CCFCDCFCECCCE1202B27C007D0A120264
:0C09D700B2ED2430FF120C54150E80CA43
:0109E30022F1
:0A0C83008B09120C1BAF09020C5480
:060AEC008B098A0A890B48
:100AF200120C1BE4F50CAB09AA0AA90B850C827532
:0F0B02008300120273FF6007120C54050C80E78A
:010B110022C1
:030C3E00011B0097
:0409E4007F017E0011
:0409E8008E098F0ADB
:1009EC00E4F50BD3E50B950AE495095021E4FFC21D
:1009FC0095E4FE0EBE32FCD295E4FE0EBE32FC0F28
:0E0A0C00BFFAEC7FF47E01120B5B050B80D568
:010A1A0022B9
:1006D300C297D296D295D2942093107F647E001253
:1006E3000B5B2093061209E47F37222092107F646C
:1006F3007E00120B5B2092061209E47F38222091C0
:10070300107F647E00120B5B2091061209E47F398F
:10071300222090107F647E00120B5B20900612094A
:10072300E47F2F22D297C296D295D2942093107F42
:10073300647E00120B5B2093061209E47F342220AF
:1007430092107F647E00120B5B2092061209E47FF5
:1007530035222091107F647E00120B5B20910612DC
:1007630009E47F36222090107F647E00120B5B2009
:1007730090061209E47F2A22D297D296C295D29488
:100783002093107F647E00120B5B2093061209E412
:100793007F31222092107F647E00120B5B20920631
:1007A3001209E47F32222091107F647E00120B5BDA
:1007B3002091061209E47F33222090107F647E008B
:1007C300120B5B2090061209E47F2D22D297D2965A
:1007D300D295C294209323209313E51BC3940A500C
:1007E3000C1209E4051B7FA0120AC680EAE51BC3AD
:1007F300940A40037F63227F43222092107F647E0A
:1008030000120B5B2092061209E47F302220911024
:100813007F647E00120B5B2091061209E47F3D2268
:100823002090107F647E00120B5B2090061209E477
:080833007F2B22D2940206D3B0
:100B7E00E4FDFCD3ED9FEC9E5015E4FBFA0BBB009D
:0F0B8E00010AEB64724A70F50DBD00010C80E4A2
:010B9D002235
:0D0C7600D2A00000D2A10000C2A000002208
:090C8D00C2A1D2A0D2A1C2A02292
:090C9600C2A1C2A0D2A1D2A02289
:0F0BEE007E00120A1B120BFDAF037E00120A1BC2
:0A0BFD00C2A1D2A0D2A120A0FD22C7
:07000300C2A1D2A0D2A1228C
:100A1B00AD07AC06E4F518C2A17E007480A81808D7
:100A2B008006CEA2E713CE13D8F8FFEE5CFEEF5D87
:100A3B004E6003D38001C392A0D2A10518E518B470
:030A4B0008D522A9
:100B1200E4F51AF519C2A1D2A130A00FAF19A807A6
:100B22007480088002C313D8FC421A0519E519B46F
:050B320008E3AF1A22E8
:100B9E00AB05AA07120C767FA0120BF8AF02120B50
:0B0BAE00EE120C967F0A7E00020B7E08
:020BB900AB0788
:100BBB00120C767FA0120BEE120C8D7FA1120BF88C
:090BCB00120B12120003020C9639
:10000E00EC4D6011E8497017ED33EC3304600DE4EC
:10001E00FCFFFEFD22E933E8330470F802025E12A3
:10002E00022958046009E4CC2481500628500902A4
:10003E000268284003020265C0E0EB4A7044B980B2
:10004E0006D0E0FB020254EF4E701CBD8008EBFFA1
:10005E00EAFEE9FD80EBE98DF0A4FEE5F00200F783
:10006E00E9CDF9EAFEEBFFEF89F0A4FCE5F0CE89CD
:10007E00F0A42EFFE435F0CD89F0A42DFEE435F08A
:10008E008067EF4E7005BD80D780C3EF8BF0A4ACB8
:10009E00F0EE8BF0A42CFCE435F0F8EF8AF0A42CF3
:1000AE00E5F038FCE433CB8DF0A42CFCE5F03BF806
:1000BE00EE8AF0A42CFCE5F038F8E433CF89F0A4F6
:1000CE002CFCE5F038CF3400CE89F0A42FFFE5F0FC
:1000DE003EFEE433C98DF0A42EFEE5F039CD8AF054
:1000EE00A42FFFE5F03EFEE43DFD33D0E0FB5007CC
:1000FE000BBB000F020268EC2CFCEF33FFEE33FE5D
:06010E00ED33FD0202408A
:10011400020268EC5D046005E85904700302025EA3
:10012400120229580460F6EC4860F2EC7004FDFEFB
:10013400FF22C860DB2481C85009C39860025006BE
:100144000202659850CAF582E9294B4A7005AB82D0
:1001540002025475F0007C1A7880C3EF9BEE9AED8E
:1001640099400DC3EF9BFFEE9AFEED99FDE842F036
:10017400DC23ACF0D0E0FFD0E0FED0E0FDAB822089
:10018400E7101BEB60BAEC2CFCEF33FFEE33FEED13
:1001940033FD020240E803F830E705C0F075F000D3
:1001A400EF2FFFEE33FEED33FD40B830E7C280AAF7
:1001B40075F020800E75F010800575F0087D007EC6
:1001C400007F003392D530D503120337EC3340104F
:1001D400EF33FFEE33FEED33FDEC33FCD5F0ED22CF
:0E01E400E5F0247EA2D513CC92E7CDCEFF220B
:1001F200EDD2E7CD33EC3392D524814006E4FFFE05
:10020200FDFC22FCE4CFCECDCC24E0501174FF8063
:10021200EDC3CC13CCCD13CDCE13CECF13CF047000
:07022200F030D5DE020337C6
:10022900E9D2E7C933E833F892D5EDD2E7CD33EC1B
:0702390033FC5002B2D52294
:10024000EC30E7100FBF000C0EBE00080DBD00041F
:100250000BEB6014A2D5EB13FCED92E7FD2274FFCB
:10026000FCFDFEFF22E480F8A2D574FF13FC7D8024
:03027000E480EF38
:0300000002083BB8
:0C083B00787FE4F6D8FD75814E0208823B
:10027300BB010CE58229F582E5833AF583E0225040
:1002830006E92582F8E622BBFE06E92582F8E2228A
:0D029300E58229F582E5833AF583E49322A4
:1002A000EF8DF0A4A8F0CF8CF0A428CE8DF0A42E72
:0202B000FE222C
:1002B200C2D5EC30E709B2D5E4C39DFDE49CFCEE67
:1002C20030E715B2D5E4C39FFFE49EFE120345C397
:1002D200E49DFDE49CFC800312034530D507C3E492
:0602E2009FFFE49EFE22D6
:1002E800E88FF0A4CC8BF0A42CFCE98EF0A42CFCB5
:1002F8008AF0EDA42CFCEA8EF0A4CDA8F08BF0A433
:100308002DCC3825F0FDE98FF0A42CCD35F0FCEB91
:100318008EF0A4FEA9F0EB8FF0A4CFC5F02ECD3956
:0F032800FEE43CFCEAA42DCE35F0FDE43CFC22C3
:0E033700C3E49FFFE49EFEE49DFDE49CFC22D7
:1008470002039AE493A3F8E493A34003F68001F22A
:1008570008DFF48029E493A3F85407240CC8C333B2
:10086700C4540F4420C8834004F456800146F6DF81
:10087700E4800B0102040810204080900C2FE47ED6
:10088700019360BCA3FF543F30E509541FFEE49376
:10089700A360010ECF54C025E060A840B8E493A33D
:1008A700FAE493A3F8E493A3C8C582C8CAC583CA68
:1008B700F0A3C8C582C8CAC583CADFE9DEE780BE20
:010C410000B2
:10034500BC000BBE0029EF8DF084FFADF022E4CC9C
:10035500F875F008EF2FFFEE33FEEC33FCEE9DEC65
:10036500984005FCEE9DFE0FD5F0E9E4CEFD22EDAB
:10037500F8F5F0EE8420D21CFEADF075F008EF2FF5
:10038500FFED33FD4007985006D5F0F222C398FDE6
:050395000FD5F0EA2283
:00000001FF
