:1008B80054696D653A2000446174653A20002050FF
:1008C8000020410020200054656D707261747572BB
:1008D800653A004E614E0053494D2043414C435503
:0708E8004C41544F52200067
:1008EF00026A000002390000025D0000025F000092
:1008FF00025B00000257000002670000025900006F
:0C090F00011800015500015400015600C1
:1007EA00120003E53970F9E53A1460111460151422
:1007FA00601E240370EA120A717F0A800C120343F6
:10080A007F05800512099B7F057E00120B8980D027
:10081A00E4F55BF55CF567F568F559F55AF539F5D0
:09082A003A7F32FE120B8980B7FF
:050BDF00D2B6C2B622EF
:0A0BC400EF4E6003D2B422C2B42247
:10087B00AD07AC06E4F563F5647E007401A864086B
:10088B008005C333CE33CED8F9FFEE5CF56EEF5D4A
:10089B00F56FFFAE6E120BC4120BDF0564E56470CF
:0D08AB00020563C39408E563940040CD226C
:10067900D2B57FBF7E0012087BE4F563F564E4F52B
:100689003EF53FF561F562E53EA2E713F53EE53F2C
:1006990013F53F30B405433F808006533F7F753ED5
:1006A90000120BDF0562E56270020561C39408E57B
:1006B90061940040D2E56425E02408F8A63E08A626
:1006C9003F0564E56470020563C39408E56394001B
:0506D90040ACC2B52297
:100B4000AB05D2B5EF3395E0FE12087BAF03EF3370
:090B500095E0FE12087BC2B522FB
:100343000568E56870020567C39402E56794005089
:100353002B120A91E4FD7F8E120B407DAB7F90122E
:100363000B40758BFFD28E7BFF7A0879B81209E5B3
:10037300120BE47BFF7A0879BF1209E5D3E55464D5
:1003830080F8E555648098401D74182554F8E6B448
:100393005C1274192554F8E6B47209C2AFC2ACE416
:1003A300F554F5550554D2B5120679C2B57D06E468
:1003B300FF120AB1AF0DAD0BAB09120795E50D5452
:1003C30080D3940074809480401BE50D5420D39413
:1003D30000748094807BFF40067A0879C6800C7A8B
:1003E3000879C980067BFF7A0879CC1209E57D0676
:0E03F3007F01120AB1AF0FAD11AB1502083336
:100A7100055CE55C7002055BC39402E55B94005084
:100A81000C120B257BFF7A0879CF1209C0020924C9
:10000300C290D293D292D29120943F7F20120A0AB7
:100013002094377F37120A61E5187015AE5DAF5E25
:10002300FC7D0A1204D3EF2407F55EE43EF55D8000
:1000330014AE5FAF607C007D0A1204D3EF2407F592
:1000430060E43EF55F7E007F072220953C7F20120F
:100053000A0A2095347F38120A61E5187015AE5DDF
:10006300AF5EFC7D0A1204D3EF2408F55EE43EF58F
:100073005D80DFAE5FAF607C007D0A1204D3EF24A6
:1000830008F560E43EF55F80C920963C7F20120AA4
:100093000A2096347F39120A61E5187015AE5DAFF8
:1000A3005EFC7D0A1204D3EF2409F55EE43EF55DA0
:1000B30080DFAE5FAF607C007D0A1204D3EF2409BA
:1000C300F560E43EF55F80C92097157F20120A0A88
:1000D30020970D7518017F2F120A6175692F80F023
:1000E300C291D293D292D29020943C7F20120A0ADA
:1000F3002094347F34120A61E5187015AE5DAF5E4B
:10010300FC7D0A1204D3EF2404F55EE43EF55D8022
:10011300DFAE5FAF607C007D0A1204D3EF2404F5E9
:1001230060E43EF55F80C920953C7F20120A0A20D7
:1001330095347F35120A61E5187015AE5DAF5EFC2C
:100143007D0A1204D3EF2405F55EE43EF55D80DFFE
:10015300AE5FAF607C007D0A1204D3EF2405F56027
:10016300E43EF55F80C920963C7F20120A0A209660
:10017300347F36120A61E5187015AE5DAF5EFC7D03
:100183000A1204D3EF2406F55EE43EF55D80DFAE8C
:100193005FAF607C007D0A1204D3EF2406F560E4B0
:1001A3003EF55F80C92097157F20120A0A20970D1C
:1001B3007518017F78120A6175697880F0C292D24E
:1001C30093D290D29120943C7F20120A0A20943437
:1001D3007F31120A61E5187015AE5DAF5EFC7D0AD2
:1001E3001204D3EF2401F55EE43EF55D80DFAE5FDC
:1001F300AF607C007D0A1204D3EF2401F560E43E76
:10020300F55F80C920953C7F20120A0A2095347F30
:1002130032120A61E5187015AE5DAF5EFC7D0A12FD
:1002230004D3EF2402F55EE43EF55D80DFAE5FAFFD
:10023300607C007D0A1204D3EF2402F560E43EF5EE
:100243005F80C920963C7F20120A0A2096347F33B0
:10025300120A61E5187015AE5DAF5EFC7D0A1204EB
:10026300D3EF2403F55EE43EF55D80DFAE5FAF6060
:100273007C007D0A1204D3EF2403F560E43EF55FAE
:1002830080C92097157F20120A0A20970D7518013F
:100293007F2D120A6175692D80F0C293D290D2929C
:1002A300D2912094357F20120A0A20942DE51870EC
:1002B30010AE5DAF5EFC7D0A1204D38E5D8F5E804F
:1002C3000FAE5FAF607C007D0A1204D38E5F8F6038
:1002D300053AE53A70D4053980D02095327F201253
:1002E3000A0A20952A7F30120A61E5187010AE5D64
:1002F300AF5EFC7D0A1204D38E5D8F5E80E4AE5F39
:10030300AF607C007D0A1204D38E5F8F6080D320A0
:1003130096127F20120A0A20960A7F3D120A611262
:1003230005FC80F32097157F20120A0A20970D758C
:1003330018017F2B120A6175692B80F0E4FEFF22FE
:1005FC00E569B42B0DE55E2560FFE55D355FFE1208
:10060C000401E569B42D29D3E55E9560E55D955F40
:10061C00400BE55E9560FFE55D955F800F7F2D12C9
:10062C000A61C3E560955EFFE55F955DFE1204010E
:10063C00E569B42F24E560455F6010AC5FAD60AE3A
:10064C005DAF5E1204E5120401800E7F01120B9463
:10065C007BFF7A0879DB120A2DE569B4780EAC5F62
:0D066C00AD60AE5DAF5E1204D3120401223A
:100401008E748F75D3E575940FE574942740187C2D
:10041100277D10120A56AE74AF757C277D10120429
:10042100E58C748D758015D3E57594E7E5749403B7
:100431004026E575940FE5749427501CAE74AF7592
:100441007C037DE8120A56AE74AF757C037DE81219
:1004510004E58C748D758015D3E5759463E574940A
:10046100004020E57594E7E574940350167D64120D
:100471000A50AE74AF757C007D641204E58C748DF6
:10048100758015D3E5759409E57494004022E575EE
:100491009463E574940050187D0A120A50AE74AF4B
:1004A100757C007D0A1204E58C708D71E571800206
:0904B100E5752430FF120A6122F6
:100976007F147E001209567F01120B947F38120BEA
:10098600947F0E120B947F06120B947F01120B9428
:050996007F80020B94BC
:100B94008F3DC2A6C2A5D2A77F14120A0AC2A722F9
:100A5000AE74AF757C001204E58E708F71EF243098
:010A6000FF96
:100A61008F3DD2A6C2A5D2A77F28120A0AC2A72209
:100A0A00E4FDFCEFFBC3ED9BEC94005015E4FBFA0C
:100A1A000BBB00010ABA04F8BBFBF50DBD00010CC3
:020A2A0080E169
:010A2C0022A7
:10099B00055AE55A70020559C39402E55994005063
:1009AB00111209767BFF7A0879DF1209C07FC0121A
:0509BB000B9402000393
:100A2D008B748A758976AB74AA75A9761204BAFF90
:100A3D006010120A6174012576F576E43575F57549
:030A4D0080E42220
:070BD8002E0043200046003F
:08091B00410005004100060047
:100AEF00D2B77F087E00120B89C2B77F417E0012FA
:0B0AFF000B89D2B77F147E00020B8928
:070B8200120B0A7F0A7E003E
:0B0B8900EF1FAC0670011E4C70F6223E
:100AD100E4FB7D08C2B7EBC313FBD2B730B70343C6
:0D0AE10003807F047E00120B89DDE9AF0366
:010AEE0022E5
:020B0A00AD0735
:100B0C007B08C2B7ED1392B77F057E00120B89D21A
:080B1C00B7EDA2E713FDDBEACF
:010B240022AE
:10073E00120AEF7FCC120B0A7F44120B82120AEFC1
:10074E007FCC120B0A7FBE120B82120AD1900006CA
:10075E00EFF0120AD1900005EFF0FEA3E07C00242A
:10076E0000FFEC3EC4F854F0C8EFC4540F48FF909D
:10077E000008F07E007D091204D37D0512053AEFC4
:07078E002420900000F0227E
:1006DE00AD07ED75F064842430900004F0FCED75E8
:1006EE00F06484E5F075F00A842430900003F0ED98
:1006FE0075F00A84E5F02430900002F0EDFF9000D2
:10070E0001F0C39F2430900007F0AF04120BCE907F
:10071E000003E0FF120BCE900002E0FF120BCE7B27
:10072E00FF7A0B79D81209C0900007E0FF020BCEBA
:100924007FC0120BA412073E900008E0FF1206DEFF
:100934007BFF7A0B79DA1209C0900000E0FF1206FF
:0A094400DE7BFF7A0B79DD0209C0AB
:100B25007F147E001209567F38120BA47F0E120B1C
:0B0B3500A47F06120BA47F01020BA49A
:1009C0008B748A758976AB74AA75A9761204BA609D
:1009D000130576E5767002057514F91204BAFF1254
:0509E0000BCE80E222B5
:100BA4008F80C2A612094EC2A77F057E0002095695
:0A0BCE008F80D2A612094EC2A722A2
:08094E00C2A5D2A77F017E00C3
:10095600E4FDFCC3ED9FEC9E5015E4FBFA0BBB00D7
:0F096600010AEB64704A70F50DBD00010C80E4CE
:01097500225F
:100A91007F887E13120B767F38120BB47F0E120BF8
:100AA100B47F06120BB47F01120BB47F80020BB42A
:100BB4008F80C2A6120B6EC2A77F017E00020B7645
:050B5900540F2430FFE1
:100B5E008F80D2A6120B6EC2A77F017E00020B768B
:050BE4007FC0020BB40C
:100AB100C3EF648094825017EFC4333354C0448031
:0F0AC100FFC3ED648094905003ED2FFF120BB430
:010AD0002203
:1009E5008B748A758976AB74AA75A9761204BA6078
:1009F500130576E5767002057514F91204BAFF122F
:050A05000B5E80E222FF
:060795008F748D758B7658
:10079B007F01E57420E7027F037804E574A2E71379
:1007AB00D8FB5F2430FF120B5EE574120B597F3AB6
:1007BB00120B5E7804E575A2E713D8FB120B59E513
:1007CB0075120B597F3A120B5E7804E576A2E7138C
:0F07DB00D8FB120B59E576540F2430FF020B5E4A
:100833008F748D758B767804E574A2E713D8FB1259
:100843000B59E574120B597F2F120B5E7804E57573
:10085300A2E713D8FB120B59E575120B597F2F1220
:100863000B5E7804E576A2E713D8FB120B59E57605
:08087300540F2430FF020B5E5C
:080B6E00C2A5D2A77F017E00A1
:0C0B7600EF4E6007EF1F70F81E80F522A4
:0300000002057086
:0C057000787FE4F6D8FD7581760205B7AF
:1004BA00BB010689828A83E0225002E722BBFE0240
:0904CA00E32289828A83E4932273
:1004D300EF8DF0A4A8F0CF8CF0A428CE8DF0A42E3D
:0204E300FE22F7
:1004E500BC000BBE0029EF8DF084FFADF022E4CCFB
:1004F500F875F008EF2FFFEE33FEEC33FCEE9DECC4
:10050500984005FCEE9DFE0FD5F0E9E4CEFD22ED09
:10051500F8F5F0EE8420D21CFEADF075F008EF2F53
:10052500FFED33FD4007985006D5F0F222C398FD44
:050535000FD5F0EA22E1
:10053A00C2D5EC30E709B2D5E4C39DFDE49CFCEEDC
:10054A0030E715B2D5E4C39FFFE49EFE1204E5C36B
:10055A00E49DFDE49CFC80031204E530D507C3E466
:06056A009FFFE49EFE224B
:10057C000207EAE493A3F8E493A34003F68001F2A4
:10058C0008DFF48029E493A3F85407240CC8C33380
:10059C00C4540F4420C8834004F456800146F6DF4F
:1005AC00E4800B01020408102040809008EFE47EE8
:1005BC00019360BCA3FF543F30E509541FFEE49344
:1005CC00A360010ECF54C025E060A840B8E493A30B
:1005DC00FAE493A3F8E493A3C8C582C8CAC583CA36
:1005EC00F0A3C8C582C8CAC583CADFE9DEE780BEEE
:0109230000D3
:00000001FF
