:100988004F76656E20436F6E74726F6C0054696D9C
:1009980065456E7465720030303A3030003A002593
:1009A8003032643A25303264004F70656E20446FEF
:1009B8006F7200436C6F736520446F6F7200696ECD
:0D09C80076616C696420666F726D61740069
:050C2E00C189010A006C
:10035F00120BD87BFF7A097988E4FDFF120B6C7FB3
:10036F00C87E00020544E50A1470030204D4147019
:10037F000302054A240270EE7BFF7A097995E4FDAA
:10038F007F01120B6C7FC87E00120B927BFF7A09E4
:10039F00799F7D0A7F01120B6C2009030204CEE4C2
:1003AF00F51CF51D740D251DF87630051DE51D7026
:1003BF0002051C6404451C70EBE4F51CF51D1206C8
:1003CF007C8F1BE51BC394304044E51BD3943950FD
:1003DF003D850F10850E0F850D0E851B0DAB107D06
:1003EF000A7F01120C24AB0F7D0B7F01120C247BB3
:1003FF00FF7A0979A57D0C7F01120B6CAB0E7D0D79
:10040F007F01120C24AB0D7D0E7F01120C24051DF4
:10041F00E51D7002051CC39404E51C6480948040A4
:10042F009DAF10EF3395E0FEEF24D0FFEE34FFFECB
:10043F007C007D0A1207FEAD0FED3395E0FCED2435
:10044F00D0FDEC34FFCD2FF50CED3EF50BAF0EEFDD
:10045F003395E0FEEF24D0FFEE34FFFE7C007D0AE3
:10046F001207FEAD0DED3395E0FCED24D0FDEC341D
:10047F00FFCD2FF509ED3EF5087525FF752609759A
:10048F0027A7850B28850C29F52A85092B7B007A50
:10049F0000791312005F7B007A0079137D0A7F01C8
:1004AF00120B6CC209E50DB43013E50EB4300EE536
:1004BF000FB43009E51064307003020375800075C6
:1004CF000A0102037512067C8F1EE51E6443704EEF
:1004DF0020A021120BB57BFF7A0979B1E4FD7F01D2
:1004EF00120B6C7FE87E03120B927F0A7E00120ABA
:1004FF001A020375120BB57BFF7A0979BBE4FD7FF6
:10050F0001120B6C7FB87E0B120B92120BB57FE8AA
:10051F007E03120B92750A027FE87E038017E51E99
:10052F00643D6003020375D2097FFAFE120B92E459
:10053F00F50A7F64FE120B92020375850811850977
:10054F0012850B19850C1AC3E51A943BE5196480C3
:10055F009480400302064CC3E512943BE51164807E
:10056F009480400302064C20A0357BFF7A0979B1B5
:10057F00E4FD7F01120B6C7F0A7E00120A1A12062D
:10058F007CBF43FA7BFF7A0979BBE4FD7F01120B35
:10059F006C7FB87E0B120B927F09120AA980C8E5F7
:1005AF0012151270021511C3E51164809480500E5C
:1005BF0075110075123BE51A151A70021519C3E56E
:1005CF0019648094805009E4F519F51AF511F512A4
:1005DF007FA0120B46752602AB1AAA197D0A7F015E
:1005EF001209D57BFF7A0979A57D0C7F01120B6C5F
:1005FF00752602AB12AA117D0D7F011209D5120AC1
:10060F004DBF432012067CEF644360127FF47E01DE
:10061F00120B92120A4DBF3DEBD209E4F50A3009D5
:10062F0003020375E51A45196003020576E51245C5
:10063F00116003020576D209F50A020375120BB594
:10064F007F647E00120B927BFF7A0979C6E4FD7FEF
:10065F0001120B6C7F0A7E00120A1A7FA87E6112AC
:0D066F000B92120BB5D209E4F50A020375D7
:100BD8007F38120C007F0C120C007F01120C007F72
:040BE80080020C007B
:100C00008F80C2A5C2A6120B20C2A77F0A7E000257
:020C10000B26B1
:100C12008F80C2A5D2A6120B20C2A77F0A7E000235
:020C22000B269F
:060A7E008B368A3789382F
:100A8400E4F539F53AAB36AA37A938853A8285397F
:100A9400831207D1FF600D120C12053AE53A70E596
:040AA400053980E1AF
:010AA800222B
:100BEC00EF7007ED2480F5288005ED24C0F528AFC3
:040BFC0028020C00BF
:060B2000D2A77F0A7E004F
:100B2600E4FDFCC3ED9FEC9E5015E4FBFA0BBB0005
:0F0B3600010AEB64704A70F50DBD00010C80E4FC
:010B4500228D
:100B4600E4FDFCEFFBC3ED9BEC94005018758D4B58
:100B5600758BFDC28FD28E308FFDC28FC28E0DBDBA
:050B660000010C80DE1F
:010B6B002267
:100B9200E4FDFCC3ED9FEC9E5018758CFC758A64D5
:100BA200C28DD28C308DFDC28DC28C0DBD00010C68
:020BB20080E1E0
:010BB400221E
:050C37007F01020C002A
:080AD2008E288F298C2A8D2B40
:100ADA007F017E00E4FBEBC3952BE52A6480F87462
:0E0AEA008098500AAC28AD291207FE0B80E858
:010AF80022DB
:0409D5008A248B25C0
:1009D900120BEC852627E527D39400402FE5272421
:1009E900FFFDE434FFFC7F0A7E00120AD2AC24AD7D
:1009F90025CFCDCFCECCCE1208107C007D0A1208AF
:0C0A090010ED2430FF120C12152780CADB
:010A150022BE
:0A0C24008B22120BECAF22020C121F
:060B6C008B228A2389247C
:100B7200120BECE4F525AB22AA23A9248525827564
:0F0B820083001207D1FF6007120C12052580E7D0
:010B91002241
:100BB5007FC0120C00E4F522F5237F20120C1205EC
:100BC50023E52370020522C39410E52264809480F6
:020BD50040E8F6
:010BD70022FB
:020AA9008F229A
:100AAB007FC0120C00E4F523F524C3E524952274D2
:100ABB0080F8652398500F7F20120C120524E52433
:060ACB0070E8052380E441
:010AD1002202
:030C3300011F009E
:040A16007F017E00DE
:040A1A008E228F2376
:100A1E00E4F524D3E5249523E495225021E4FFC286
:100A2E0095E4FE0EBE32FCD295E4FE0EBE32FC0FF5
:0E0A3E00BFFAEC7FF47E01120B92052480D5E6
:010A4C002287
:10067C00C297D296D295D2942093107FD07E071237
:10068C000B92209306120A167F37222092107FD0ED
:10069C007E07120B92209206120A167F38222091A6
:1006AC00107FD07E07120B92209106120A167F390A
:1006BC00222090107FD07E07120B92209006120AF7
:1006CC00167F2F22D297C296D295D2942093107F68
:1006DC00D07E07120B92209306120A167F3422202A
:1006EC0092107FD07E07120B92209206120A167F70
:1006FC0035222091107FD07E07120B92209106128A
:10070C000A167F36222090107FD07E07120B922083
:10071C009006120A167F2A22D297D296C295D294AC
:10072C002093107FD07E07120B92209306120A168C
:10073C007F31222092107FD07E07120B92209206DE
:10074C00120A167F32222091107FD07E07120B9254
:10075C00209106120A167F33222090107FD07E073C
:10076C00120B92209006120A167F2D22D297D29647
:10077C00D295C2942093107FD07E07120B922093B7
:10078C0006120A167F43222092107FD07E07120B8E
:10079C0092209206120A167F30222091107FD07E72
:1007AC0007120B92209106120A167F3D2220901000
:1007BC007FD07E07120B92209006120A167F2B22F6
:0507CC00D29402067C3E
:100A4D00D297D296D295C2942093107FD07E071262
:100A5D000B92209306120A167F43222091107FD00D
:100A6D007E07120B92209106120A167F3D22D29418
:010A7D002256
:030000000208FCF7
:0C08FC00787FE4F6D8FD75813A020943CC
:1007D100BB010CE58229F582E5833AF583E02250DD
:1007E10006E92582F8E622BBFE06E92582F8E22227
:0D07F100E58229F582E5833AF583E4932241
:1007FE00EF8DF0A4A8F0CF8CF0A428CE8DF0A42E0F
:02080E00FE22C8
:10081000C2D5EC30E709B2D5E4C39DFDE49CFCEE03
:1008200030E715B2D5E4C39FFFE49EFE120871C302
:10083000E49DFDE49CFC800312087130D507C3E4FD
:060840009FFFE49EFE2272
:10000300E5312425F8E605312278223007027825E8
:10001300E475F0011208C60208462000EB7F2ED2D9
:10002300008018EF540F2490D43440D4FF30040BD5
:10003300EF24BFB41A0050032461FFE532600215B8
:10004300320535E5357002053430070D7822E47545
:10005300F0011208C6EF02085F020AF97403D2071F
:100063008003E4C207F5318B228A238924E4F53225
:10007300F534F535E53260077F2012003E80F575D3
:1000830033FFC201C200C202C203C205C206C208D4
:1000930012000CFF700D3007057F0012004FAF35C3
:1000A300AE3422B4255FC2D5C20412000CFF24D0A3
:1000B300B40A00501A75F00A783230D50508B6FF35
:1000C3000106C6A426F620D5047002D20380D924E3
:1000D300CFB41A00EF5004C2E5D20402024FD2019A
:1000E30080C6D20080C0D20280BCD2D580BAD205ED
:1000F30080B47F2012003E2002077401B532004015
:10010300F1120003FF12003E020077D208D20680EC
:1001130095120003FB120003FA120003F94A4B7015
:100123000679207A037BFF20022EE532602A7E00C7
:100133008E827583001207D160060EEE653370F070
:10014300C2D5EBC0E0EAC0E0E9C0E0EE120296D00F
:10015300E0F9D0E0FAD0E0FB120846FF60AAEBC05A
:10016300E0EAC0E0E9C0E012003ED0E02401F9D0AB
:10017300E03400FAD0E0FBE5330460DCD533D9800A
:10018300877BFF7A027992D202809C791080027970
:1001930008C206C2088008D2D5790A8004790AC247
:1001A300D5E533047002F533E4FAFDFEFF120003D4
:1001B300FC7B08200113120003FD7B1030000A12A0
:1001C3000003FE120003FF7B20EC3382D592D5504F
:1001D30013C3E43000069FFFE49EFEE42001039D69
:1001E300FDE49CFCE4CBF8C201EC700CCFCECDCC8B
:1001F300E824F8F870F38017C3EF33FFEE33FEED16
:1002030033FDEC33FCEB33FB994002FB0FD8E9EBF6
:10021300300105F8D0E0C448B201C0E00AEC4D4E0D
:100223004F78207B0070C2EAB5330040BCC0E012B7
:100233000298D0F0D0E0200104C4C0E0C4B201C0F1
:10024300F0120027D0F0D5F0EB0200771208D601A8
:100253001453018E5800E54C00E14201924F019A7C
:0F02630044019A4900FA4301A0550184460184E1
:100272004501844703405000E92D00ED2E01102B6B
:1002820000F123010E2003292A00A94800000108D9
:100292003F3F3F00790AA2D5200314300509B91067
:1002A200020404B9080104A2D52006025001042068
:1002B20002689202B532005034C0E07F2030031948
:1002C2007F30A20272067205500F1202EFC202C202
:1002D20006C205C2087F30800F300503E9C0E01274
:1002E200003E300503D0E0F9D0E0B532CC3005173E
:1002F2007F30B9100C12003E7F583004077F78809F
:1003020003B9080312003E3002057F2D02003E7F32
:10031200202008F87F2B2006F322920280CF286E3D
:10032200756C6C2900D2011200033001F8C2017809
:100332003230D50108F60200A92D50434958120067
:10034200032403B405004001E490033B9312002F01
:0D035200743A12002FD20375320402018E9E
:1009080002035FE493A3F8E493A34003F68001F2A3
:1009180008DFF48029E493A3F85407240CC8C333F0
:10092800C4540F4420C8834004F456800146F6DFBF
:10093800E4800B0102040810204080900C2EE47E15
:10094800019360BCA3FF543F30E509541FFEE493B4
:10095800A360010ECF54C025E060A840B8E493A37B
:10096800FAE493A3F8E493A3C8C582C8CAC583CAA6
:10097800F0A3C8C582C8CAC583CADFE9DEE780BE5E
:010C360000BD
:10084600BB010689828A83E0225002E722BBFE02B0
:09085600E32289828A83E49322E3
:10085F00BB010689828A83F0225002F722BBFE0178
:02086F00F32272
:10087100BC000BBE0029EF8DF084FFADF022E4CC6B
:10088100F875F008EF2FFFEE33FEEC33FCEE9DEC34
:10089100984005FCEE9DFE0FD5F0E9E4CEFD22ED7A
:1008A100F8F5F0EE8420D21CFEADF075F008EF2FC4
:1008B100FFED33FD4007985006D5F0F222C398FDB5
:0508C1000FD5F0EA2252
:1008C600FAE6FB0808E6F925F0F618E6CA3AF62233
:1008D600D083D082F8E4937012740193700DA3A3B1
:1008E60093F8740193F5828883E4737402936860C5
:0608F600EFA3A3A380DFC5
:100AF900EFB40A07740D120B04740A309811A899FF
:100B0900B8130CC2983098FDA899C298B811F6305C
:070B190099FDC299F5992234
:00000001FF
