:0E00690048656C6C6F20576F726C640A0D0056
:0E005A00E4FFFE0FBF00010EEF64474E70F58D
:010068002275
:080083008F993099FDC299220A
:100003008B088A09890AAB08AA09A90A1200416068
:1000130013050AE50A7002050914F9120041FF12DB
:05002300008380E222D1
:10002800758920758DFD759850D28E7BFF7A007981
:090038006912000312005A80F263
:0300000002007784
:0C007700787FE4F6D8FD75810A020028AD
:10004100BB010689828A83E0225002E722BBFE02BD
:09005100E32289828A83E49322F0
:00000001FF
