:0400DC000208000016
:1000C900758901758CFC758A65D28C308DFDC28D60
:0300D900C28C22B4
:10008F00C2A0E4F508F5091200C90509E5097002D7
:10009F000508C39413E508940040ECD2A0E4F508DA
:1000AF00F509C3E5099401E508940050D31200C97E
:0A00BF000509E50970EC050880E86A
:03000000020003F8
:0C000300787FE4F6D8FD75810902004A00
:10000F0002008FE493A3F8E493A34003F68001F278
:10001F0008DFF48029E493A3F85407240CC8C333F2
:10002F00C4540F4420C8834004F456800146F6DFC1
:10003F00E4800B01020408102040809000DCE47E75
:10004F00019360BCA3FF543F30E509541FFEE493B6
:10005F00A360010ECF54C025E060A840B8E493A37D
:10006F00FAE493A3F8E493A3C8C582C8CAC583CAA8
:10007F00F0A3C8C582C8CAC583CADFE9DEE780BE60
:0100E000001F
:00000001FF
