:0C00F000020C000002080000020A0000E0
:03000B0002009A56
:10009A00C0E0050DE50D7002050C64917004E50CD5
:1000AA0064017032B2A00509E50970020508750CF1
:1000BA0000750D00640A4508701CB2A1050BE50B1A
:1000CA007002050A750800750900640A450A700677
:0900DA00B2A2F50AF50BD0E032E8
:0D00E30075A882758902758CE9D28C80FEAB
:0300000002000EED
:0C000E00787FE4F6D8FD75810D020055E6
:10001A000200E3E493A3F8E493A34003F68001F219
:10002A0008DFF48029E493A3F85407240CC8C333E7
:10003A00C4540F4420C8834004F456800146F6DFB6
:10004A00E4800B01020408102040809000F0E47E56
:10005A00019360BCA3FF543F30E509541FFEE493AB
:10006A00A360010ECF54C025E060A840B8E493A372
:10007A00FAE493A3F8E493A3C8C582C8CAC583CA9D
:10008A00F0A3C8C582C8CAC583CADFE9DEE780BE55
:0100FC000003
:00000001FF
