:0E065C00446174653A200054696D653A2000CF
:1002500012062812067E7BFF7A06795C7D017F01FB
:100260001205B47BFF7A0679637D017F021205B423
:1002700012000312014F751A02AB0DAA0C7D077F05
:10028000011205F57B2F7D097F01120674751A0294
:10029000AB0BAA0A7D0A7F011205F57B2F7D0C7F2F
:1002A00001120674751A02AB09AA087D0D7F0112AE
:1002B00005F5751A02AB0FAA0E7D077F021205F530
:1002C0007B3A7D097F02120674751A02AB11AA10DF
:1002D0007D0A7F021205F57B3A7D0C7F02120674BF
:1002E000751A02AB13AA127D0D7F021205F58083E9
:10063C000E080017000C001F0017003B00320006CC
:07067E00C2B5C2B6C2B422EE
:06041000ED2BFDEC3AFCAF
:060416008C168D17A907EA
:10041C00D2B5E4FBFAAF037E007401A8070880058F
:10042C00C333CE33CED8F9FFE9FDEF5D24FF92B490
:10043C00D2B6C2B60BBB00010AEB64084A70D6E414
:10044C00FAFBAF037E007401A807088005C333CE06
:10045C0033CED8F9FFE5165EFEE5175F4E24FF920A
:10046C00B4D2B6C2B60BBB00010AEB64084A70D218
:02047C00C2B507
:01047E00225B
:02047F00AD07C7
:10048100E4F9430501D2B5FB7E007401A80308809D
:1004910005C333CE33CED8F9FFEDF582EF55822473
:1004A100FF92B4C2B6D2B60BBB08DDD2B4E4FBD224
:1004B100B6C2B630B40DA8037401088002C333D8A4
:0D04C100FC42010BBB08E8C2B5C2B4AF019C
:0104CE00220B
:10000300E4FDFC7F8E120416AE08AF097D0A1203CD
:100013002FEFC4F8540FC868FBEEC454F048FAAE8F
:1000230008AF097C007D0A12032F7F8C120410AEE7
:100033000AAF0B7C007D0A12032FEFC4F8540FC8DC
:1000430068FBEEC454F048FAAE0AAF0B7C007D0A9D
:1000530012032F7F88120410AE0CAF0D7C007D0AB3
:1000630012032FEFC4F8540FC868FBEEC454F048D2
:10007300FAAE0CAF0D7C007D0A12032FED2BFDECC5
:100083003AFC7F86120416AE0EAF0F7C007D0A1277
:10009300032FEFC4F8540FC868FBEEC454F048FABA
:1000A300AE0EAF0F7C007D0A12032FED2BFDEC3A51
:1000B300FC7F84120416AE10AF117C007D0A12037C
:1000C3002FEFC4F8540FC868FBEEC454F048FAAEDF
:1000D30010AF117C007D0A12032FED2BFDEC3AFCCF
:1000E3007F82120416AE12AF137C007D0A12032F17
:1000F300EFC4F8540FC868FBEEC454F048FAAE12CC
:10010300AF137C007D0A12032FED2BFDEC3AFC7F2D
:1001130080120416AE14AF157C007D0A12032FEF74
:10012300C4F8540FC868FBEEC454F048FAAE14AFD9
:10013300157C007D0A12032FED2BFDEC3AFC7F8A20
:0C0143001204167D807C007F8E020416E2
:10014F007F8C12047FAB077A00EAC4F854F0C868BA
:10015F00FEEBC4540F48FF7C007D0A12031DEB54C5
:10016F000F2FF509EC3EF5087F8812047FAB07EAE5
:10017F00C4F854F0C868FEEBC4540F48FF7D0A1250
:10018F00031DEB540F2FF50BEC3EF50A7F8612047F
:10019F007FAB07EAC4F854F0C868FEEBC4540F48AD
:1001AF00FF7D0A12031DEB540F2FF50DEC3EF50CDE
:1001BF007F8412047FAB07EAC4F854F0C868FEEBE3
:1001CF00C4540F48FF7D0A12031DEB540F2FF50F78
:1001DF00EC3EF50E7F8212047FAB07EAC4F854F0B1
:1001EF00C868FEEBC4540F48FF7D0A12031DEB5481
:1001FF000F2FF511EC3EF5107F8012047FAB07EA4D
:10020F00C4F854F0C868FEEBC4540F48FF7D0A12BF
:10021F00031DEB540F2FF513EC3EF5127F8A1204DA
:10022F007FAB07EAC4F854F0C868FEEBC4540F481C
:10023F00FF7D0A12031DEB540F2FF515EC3EF5143D
:01024F00228C
:06064D00C2A58F80D2A7B8
:080653007F027EEFDEFEDFFCFA
:01065B00227C
:0A066A00C2A612064DC2A7020653F5
:1005D700CFCDCFCECCCE12032F7C007D0A12032FB6
:0405E700ED2430FFD0
:0A05EB00D2A612064DC2A702065365
:10061200AE07BE0106ED1444808006BE0207ED243B
:06062200BFFF12066A2270
:100628007F3812066A7F0C12066A7F0612066A7FF6
:040638000102066A4B
:0A067400AC03120612AF040205EBFE
:0605B4008B168A1789185E
:1005BA00120612E4FDAB16AA17A9188D82758300DC
:0C05CA001202F0FF60061205EB0D80E944
:0105D6002202
:0C0581007F0AEA24FFFDE434FFFC7E004A
:08058D008E1B8F1C8C1D8D1EBE
:100595007F017E00E4FBEBC3951EE51D6480F874C6
:0E05A5008098500AAC1BAD1C12031D0B80E8A1
:0105B3002225
:0405F5008A188B19BC
:1005F900120612AA1AEAD39400400D120581AC180A
:08060900AD191205D71A80EDAE
:0106110022C6
:0404CF008A218B22D1
:1004D300120612C3E5219400400D7F2B1205EB8514
:1004E300212485222580107F2D1205EBC3E495225C
:1004F300F525E49521F524AA23EAD39400400D12AF
:0C0503000581AC21AD221205D71A80ED55
:01050F0022C9
:040510008A288B2981
:10051400120612AA2AEAD3940040297F10120583F6
:10052400AC28AD29CFCDCFCECCCE12032FEF540FB4
:10053400FEC3940AEE5004243080022437FF1205CF
:04054400EB1A80D15D
:010548002290
:040549008A2D8B2E3E
:10054D00120612AA2FEAD394004028EA24FFFDE4F4
:10055D0034FFFC7F027E0012058DAC2DAD2ECFCD6C
:10056D00CFCECCCE12032FEF54012430FF1205EB6A
:03057D001A80D20F
:010580002258
:0300000002038474
:0C038400787FE4F6D8FD75812F0203CBD2
:1002F000BB010CE58229F582E5833AF583E02250C3
:1003000006E92582F8E622BBFE06E92582F8E2220C
:0D031000E58229F582E5833AF583E4932226
:10031D00EF8DF0A4A8F0CF8CF0A428CE8DF0A42EF4
:02032D00FE22AE
:10032F00BC000BBE0029EF8DF084FFADF022E4CCB2
:10033F00F875F008EF2FFFEE33FEEC33FCEE9DEC7B
:10034F00984005FCEE9DFE0FD5F0E9E4CEFD22EDC1
:10035F00F8F5F0EE8420D21CFEADF075F008EF2F0B
:10036F00FFED33FD4007985006D5F0F222C398FDFC
:05037F000FD5F0EA2299
:10039000020250E493A3F8E493A34003F68001F231
:1003A00008DFF48029E493A3F85407240CC8C3336E
:1003B000C4540F4420C8834004F456800146F6DF3D
:1003C000E4800B010204081020408090063CE47E8B
:1003D000019360BCA3FF543F30E509541FFEE49332
:1003E000A360010ECF54C025E060A840B8E493A3F9
:1003F000FAE493A3F8E493A3C8C582C8CAC583CA24
:10040000F0A3C8C582C8CAC583CADFE9DEE780BEDB
:01064C0000AD
:00000001FF
