:1001D600426174746572793A20005469636B3A20FF
:0A01E600002043726F73733A20008B
:100157001201187F801201FF7BFF7A0179D6120105
:1001670092E4FF12021B7FC01201FF7BFF7A017925
:10017700E01201927F0112021B7BFF7A0179E712DD
:0B01870001927F0212021BE4FEFF2227
:1001B70008080E11111111110E0008180001021480
:0E01C70008000000081000110A040A110000D0
:100118007F381201FF7F0E1201FF7F011201FF7F5E
:10012800061201FF7F0C1201FF7F801201FF7B0086
:100138007A007908E4FF1200D57B007A0079187FED
:0F014800011200D57B007A0079107F020200D5EA
:0E01FF008F80C2A6C2A5D2A71201F0C2A7220D
:0E020D008F80D2A6C2A5D2A71201F0C2A722EE
:100192008B208A218922AB20AA21A92212008F60FA
:1001A200130522E5227002052114F912008FFF12B5
:0501B200020D80E222B5
:0E01F000E4FFFE0FBF00010EBE4EF8BF21F56A
:0101FE0022DE
:0600D5008B208A21892224
:1000DB00EFC394085036EF75F008A42440FF1201CB
:1000EB00FFE4F523F524AB20AA21A92285248285E0
:1000FB0023831200A8FF12020D0524E524700205CC
:0C010B0023C39408E5236480948040DA4C
:0101170022C5
:0A021B00EFC39408500312020D22F5
:03000000020003F8
:0C000300787FE4F6D8FD75812402004AE5
:10008F00BB010689828A83E0225002E722BBFE026F
:09009F00E32289828A83E49322A2
:1000A800BB010CE58229F582E5833AF583E022500D
:1000B80006E92582F8E622BBFE06E92582F8E22257
:0D00C800E58229F582E5833AF583E4932271
:10000F00020157E493A3F8E493A34003F68001F2AF
:10001F0008DFF48029E493A3F85407240CC8C333F2
:10002F00C4540F4420C8834004F456800146F6DFC1
:10003F00E4800B01020408102040809001B7E47E99
:10004F00019360BCA3FF543F30E509541FFEE493B6
:10005F00A360010ECF54C025E060A840B8E493A37D
:10006F00FAE493A3F8E493A3C8C582C8CAC583CAA8
:10007F00F0A3C8C582C8CAC583CADFE9DEE780BE60
:0101D5000029
:00000001FF
