:0400030002080000EF
:03000B0002009A56
:10009A00C0E0C0D00509E5097002050864244508D6
:1000AA007006C2A2C2A3C2A4E50964484508700644
:1000BA00D2A2C2A3C2A4E509646C45087006C2A212
:1000CA00D2A3C2A4E509649045087006D2A2D2A3BD
:1000DA00C2A4E50964B445087006C2A2C2A3D2A4A8
:1000EA00E50964D845087006D2A2C2A3D2A4E509DC
:1000FA0064FC45087006C2A2D2A3D2A4E509B420C2
:10010A0011E508B4010CD2A2D2A3D2A475080075D5
:07011A000900D0D0D0E03253
:0D01210075A882758902E4F58CD28C80FEF1
:0300000002000EED
:0C000E00787FE4F6D8FD758109020055EA
:10001A00020121E493A3F8E493A34003F68001F2DA
:10002A0008DFF48029E493A3F85407240CC8C333E7
:10003A00C4540F4420C8834004F456800146F6DFB6
:10004A00E4800B0102040810204080900003E47E43
:10005A00019360BCA3FF543F30E509541FFEE493AB
:10006A00A360010ECF54C025E060A840B8E493A372
:10007A00FAE493A3F8E493A3C8C582C8CAC583CA9D
:10008A00F0A3C8C582C8CAC583CADFE9DEE780BE55
:0100070000F8
:00000001FF
