:0C0CA20054494D453A00444154453A0085
:05000300D2B6C2B622D6
:0A0CBA00EF4E6003D2B422C2B42250
:040A5200AD07AC063A
:100A5600E4FBFAAF037E007401A807088005C333E0
:100A6600CE33CED8F9FFEE5CFEEF5DFF120CBA1264
:0D0A760000030BBB00010AEB64084A70D6B8
:010A83002250
:1009E8009000007E00120A52E4FDFCE583C313F573
:1009F80083E58213F58230B40543828080065382F2
:100A08007F7583001200030DBD00010CED64084CD6
:040A180070D9AF8260
:010A1C0022B7
:100C4B00A905D2B57E00120A52AF017E00120A52DC
:030C5B00C2B522FD
:1007CA00D2B57FBF7E00120A52E4FDFCE4F583F540
:1007DA0082FBFAE583C313F583E58213F58230B40D
:1007EA0005438280800653827F7583001200030BC3
:1007FA00BB00010AEB64084A70D9ED25E02429F808
:10080A00A68308A6820DBD00010CED64084C70BCDD
:02081A00C2B565
:01081C0022B9
:100B0400C2B5C2B6E4FD7F8E120C4B7DAB7F901252
:100B14000C4B7F811209E8EF54816007E4FD7F806C
:030B2400120C4B65
:010B270022AB
:100B89008F488D49AF03AD077F80120C4BAD497F6C
:0B0B990082120C4BAD487F84020C4B15
:100C0C008F48E548C4540F2430FF120C70E548544B
:070C1C000F2430FF020C70F1
:1008C300E4FDFF120C237BFF7A0C79A2120AB37D9D
:1008D30006E4FF120C23AF2E120C0C7F3A120C709D
:1008E3007F0A7E00120AE47D09E4FF120C23AF2C79
:1008F300120C0C7F3A120C707F0A7E00120AE47D00
:100903000CE4FF120C23AF2A120C0C7F0A7E0002A8
:020913000AE4F4
:100BDA008D488B49AD077F86120C4BAD487F881232
:090BEA000C4BAD497F8C020C4B51
:10081D00E4FD7F01120C237BFF7A0C79A8120AB339
:10082D007D067F01120C23AF30120C0C7F3A120C97
:10083D00707F0A7E00120AE47D097F01120C23AF3E
:10084D0032120C0C7F3A120C707F0A7E00120AE4F1
:10085D007D0C7F01120C23AF36120C0C7F0A7E002B
:03086D00020AE498
:100B2800120B047B507D597F23120B897B237D1286
:100B38007F31120BDAD2B51207CAC2B51208C31236
:040B4800081D80F113
:0E0C940063616C63756C61746F723A003D00B1
:1004E000E4F548F549FDFF120C237BFF7A0C799463
:1004F000120AB31202AB8F4E1207638E4A8F4BE47F
:10050000FD7F01120C23AF4E120C701202AB8F5004
:100510007D017F01120C23AF50120C701202AB8FC1
:100520004F1207638E4C8F4D7D027F01120C23AF5B
:100530004F120C707D037F01120C237BFF7A0C7924
:10054000A0120AB37D047F01120C23E55024D6606B
:100550002424FD601324FE602E24047040E54D2504
:100560004BFDE54C354A800AC3E54B954DFDE54A08
:10057000954CFC8022AC4CAD4DAE4AAF4B12020004
:10058000AC06AD07EC8010AC4CAD4DAE4AAF4B1293
:100590000212AC06AD07EC12011912063EE4FEFF92
:0105A0002238
:1002AB00E4F551E551643070030203F7E551643115
:1002BB0070030203F7E551643270030203F7E55153
:1002CB00643370030203F7E551643470030203F7E0
:1002DB00E551643570030203F7E551643670030290
:1002EB0003F7E551643770030203F7E55164387087
:1002FB00030203F7E551643970030203F7E5516418
:10030B002D70030203F7E551642A70030203F7E52E
:10031B0051643D70030203F7E551642B7003020334
:10032B00F7E551642F70030203F7E5516443700343
:10033B000203F7C290D291D292D2932094062090CE
:10034B000375512B20950620900375512D20960691
:10035B0020900375512A20970620900375512FD2B8
:10036B0090C291D292D29320940620910375513D65
:10037B002095062091037551332096062091037525
:10038B005136209706209103755139D290D291C2E4
:10039B0092D293209406209203755130209506201B
:1003AB009203755132209606209203755135209792
:1003BB0006209203755138D290D291D292C29320DB
:1003CB009406209303755143209506209303755192
:1003DB00312096062093037551343097030202AEF9
:1003EB003093030202AE7551370202AE7FE87E03F3
:0503FB00120AE4AF51FD
:0104000022D9
:10076300EF24D0B40A00505B90077975F003A4C559
:100773008325F0C5837302079702079902079E0238
:1007830007A30207A80207AD0207B20207B70207D1
:10079300BC0207C1802D7E007F01227E007F0222E2
:1007A3007E007F03227E007F04227E007F05227E5F
:1007B300007F06227E007F07227E007F08227E00C4
:0707C3007F0922E4FEFF2282
:08063E008F548E538D528C5134
:10064600E4F555F556F557FFFE7D207C41AB54AADF
:1006560053A952A85112000E1201528E588F59AF4B
:1006660054AE53AD52AC511201528E5A8F5BC3E554
:100676005A6480948050107CFF7DFF1202008E5ACF
:100686008F5B7F2D120C70AE5AAF5B7C007D0A1219
:1006960002128F56E55660062430FF120C70E5569E
:1006A60075F00AA4FEC3E55B9EF5552430FF120CD7
:1006B600707F2E120C70AE58AF597C007D0A120264
:1006C60012ED2430F557FF120C707FD07E07020A18
:0106D600E43F
:100BF3007F38120C5E7F0C120C5E7F01120C5E7F3D
:090C030080120C5E7F06020C5EFB
:100C5E008F80C2A5C2A6120ADEC2A77F0A7E00023C
:020C6E000AE496
:100C70008F80C2A5D2A6120ADEC2A77F0A7E00021A
:020C80000AE484
:060AB3008B518A528953A9
:100AB900E4F554F555AB51AA52A95385558285548D
:100AC900831201D3FF600D120C700555E55570E5D1
:040AD900055480E15F
:010ADD0022F6
:100C2300EF7007ED2480F5518005ED24C0F551AF39
:040C330051020C5E00
:0C0CAE007F01120C5E7F057E00020AE44C
:060ADE00D2A77F0A7E0092
:100AE400E4FDFCC3ED9FEC9E5015E4FBFA0BBB0048
:0F0AF400010AEB64704A70F50DBD00010C80E43F
:010B030022CF
:100A1D000114000808000C00080004000014150063
:100A2D003F0006005B004F0066006D007D00070073
:030A3D007F006FC8
:100B4C007D037C00EF601775F00A8474102DF8A6F5
:0E0B5C00F0EF75F00A84FFED1D70E91C80E6D5
:010B6A002268
:1004010074102514F8E6B40A0040030204D39004E2
:1004110016F8282873020434020445020455020424
:10042100650204750204850204950204A50204B55F
:100431000204C5E51425E02408F808E6F5A08516B0
:10044100800204D3E51425E02408F808E6F5A08528
:100451001880807EE51425E02408F808E6F5A085DB
:100461001A80806EE51425E02408F808E6F5A085D9
:100471001C80805EE51425E02408F808E6F5A085D7
:100481001E80804EE51425E02408F808E6F5A085D5
:100491002080803EE51425E02408F808E6F5A085D3
:1004A1002280802EE51425E02408F808E6F5A085D1
:1004B1002480801EE51425E02408F808E6F5A085CF
:1004C1002680800EE51425E02408F808E6F5A085CD
:0F04D10028800514E514D394034003E4F51422A6
:060A4000016800016900DD
:10091500120BF31202AB8F69E5681460171460249B
:10092500240270EF120CAE1204E0E569B443E475DD
:10093500680180DF120CAE120A84E569B443D475F0
:10094500680280CFC2A9E4F589C28CC28E120CAEB2
:0D095500120B28E569B443BBE4F56880B6D9
:100C37002E0054454D504552415455524520495375
:040C47003A0063000C
:0B0A4600025E0000016200026300007D
:1009AC008566993099FDC2997F647E00120AE485B0
:1009BC0061993099FDC2997F647E00120AE48560CA
:1009CC00993099FDC2997F647E00120AE475990AE8
:0C09DC003099FDC2997F647E00020AE49D
:100BA400D2B77F087E00120C89C2B77F417E001243
:0B0BB4000C89D2B77F147E00020C8970
:070C8200120BBF7F0A7E0088
:0B0C8900EF1FAC0670011E4C70F6223D
:100B6B00E4FB7D08C2B7EBC313FBD2B730B703432B
:0D0B7B0003807F047E00120C89DDE9AF03CA
:010B8800224A
:020BBF00AD0780
:100BC1007B08C2B7ED1392B77F057E00120C89D264
:080BD100B7EDA2E713FDDBEA1A
:010BD90022F9
:10087000120BA47FCC120BBF7F44120C82120BA46C
:100880007FCC120BBF7FBE120C82120B6B75630004
:100890008F64120B6B8F62EF7F00FEEF2564FFE524
:1008A000633EC4F854F0C8EFC4540F48F567FF7EA8
:1008B000007C007D091202007D05120212EF242047
:0308C000F55C22C2
:10096200EF75F064842430F566EF75F06484E5F089
:1009720075F00A842430F561EF75F00A84E5F024FD
:1009820030F560EFF55DC3955D2430F565AF661215
:100992000C70AF61120C70AF60120C707BFF7A0C9E
:0A09A2007937120AB3AF65020C703A
:03000B000205A14A
:1005A100C0E0C0F0C083C082C0D075D000C000C020
:1005B10001C002C003C004C005C006C007055FE555
:1005C1005F7002055E64907004E55E6401702A7FCD
:1005D10080120C5E7BFF7A0C7939120AB37FC0124C
:1005E1000C5E120870AF671209627BFF7A0C7949C1
:1005F100120AB3755E00755F00AF67120B4C1204EF
:1006010001E567C394254012C2957F027E00120A5C
:10061100E4D2957F027E00120AE4D295758CFC75B6
:100621008A18D007D006D005D004D003D002D0015B
:0D063100D000D0D0D082D083D0F0D0E03205
:100A8400D2A2D2A3D2A47580FFD2A2D2A3C2A4754B
:100A94008079120BF3D2AFD2A9758921759850755C
:0F0AA4008DFD758CFC758A18D28CD28E0209AC30
:10000E00EC4D6011E8497017ED33EC3304600DE4EC
:10001E00FCFFFEFD22E933E8330470F80201BE1244
:10002E00018958046009E4CC248150062850090245
:10003E0001C82840030201C5C0E0EB4A7044B980F4
:10004E0006D0E0FB0201B4EF4E701CBD8008EBFF42
:10005E00EAFEE9FD80EBE98DF0A4FEE5F00200F783
:10006E00E9CDF9EAFEEBFFEF89F0A4FCE5F0CE89CD
:10007E00F0A42EFFE435F0CD89F0A42DFEE435F08A
:10008E008067EF4E7005BD80D780C3EF8BF0A4ACB8
:10009E00F0EE8BF0A42CFCE435F0F8EF8AF0A42CF3
:1000AE00E5F038FCE433CB8DF0A42CFCE5F03BF806
:1000BE00EE8AF0A42CFCE5F038F8E433CF89F0A4F6
:1000CE002CFCE5F038CF3400CE89F0A42FFFE5F0FC
:1000DE003EFEE433C98DF0A42EFEE5F039CD8AF054
:1000EE00A42FFFE5F03EFEE43DFD33D0E0FB5007CC
:1000FE000BBB000F0201C8EC2CFCEF33FFEE33FEFE
:06010E00ED33FD0201A02B
:1001140075F020800E75F010800575F0087D007E66
:10012400007F003392D530D503120248EC334010DF
:10013400EF33FFEE33FEED33FDEC33FCD5F0ED226F
:0E014400E5F0247EA2D513CC92E7CDCEFF22AB
:10015200EDD2E7CD33EC3392D524814006E4FFFEA5
:10016200FDFC22FCE4CFCECDCC24E0501174FF8004
:10017200EDC3CC13CCCD13CDCE13CECF13CF0470A1
:07018200F030D5DE02024857
:10018900E9D2E7C933E833F892D5EDD2E7CD33ECBC
:0701990033FC5002B2D52235
:1001A000EC30E7100FBF000C0EBE00080DBD0004C0
:1001B0000BEB6014A2D5EB13FCED92E7FD2274FF6C
:1001C000FCFDFEFF22E480F8A2D574FF13FC7D80C5
:0301D000E480EFD9
:030000000206D71E
:0C06D700787FE4F6D8FD75816902071EEB
:1001D300BB010CE58229F582E5833AF583E02250E1
:1001E30006E92582F8E622BBFE06E92582F8E2222B
:0D01F300E58229F582E5833AF583E4932245
:10020000EF8DF0A4A8F0CF8CF0A428CE8DF0A42E12
:02021000FE22CC
:10021200C2D5EC30E709B2D5E4C39DFDE49CFCEE07
:1002220030E715B2D5E4C39FFFE49EFE120256C327
:10023200E49DFDE49CFC800312025630D507C3E422
:060242009FFFE49EFE2276
:0E024800C3E49FFFE49EFEE49DFDE49CFC22C7
:1006E300020915E493A3F8E493A34003F68001F20F
:1006F30008DFF48029E493A3F85407240CC8C33318
:10070300C4540F4420C8834004F456800146F6DFE6
:10071300E4800B0102040810204080900A1DE47E4F
:10072300019360BCA3FF543F30E509541FFEE493DB
:10073300A360010ECF54C025E060A840B8E493A3A2
:10074300FAE493A3F8E493A3C8C582C8CAC583CACD
:10075300F0A3C8C582C8CAC583CADFE9DEE780BE85
:010A510000A4
:10025600BC000BBE0029EF8DF084FFADF022E4CC8C
:10026600F875F008EF2FFFEE33FEEC33FCEE9DEC55
:10027600984005FCEE9DFE0FD5F0E9E4CEFD22ED9B
:10028600F8F5F0EE8420D21CFEADF075F008EF2FE5
:10029600FFED33FD4007985006D5F0F222C398FDD6
:0502A6000FD5F0EA2273
:00000001FF
