:10008B0057656C636F6D6520546F20004368697012
:06009B0020536F756C009C
:100003001200547F831200B07BFF7A00798B1200B9
:100013002F7FC41200B07BFF7A00799712002F1252
:0C00230000A17F011200B01200A180D7E4
:100054007F381200B07F0E1200B07F011200B07F13
:0E006400061200B07F0C1200B07F800200B0C8
:0E00B0008F80C2A6C2A5D2A71200A1C2A722AD
:0E00BE008F80D2A6C2A5D2A71200A1C2A7228F
:10002F008B0A8A0B890CAB0AAA0BA90C12007260FF
:10003F0013050CE50C7002050B14F9120072FF1278
:05004F0000BE80E2226A
:0E00A100E4FFFE0FBF00010EBE4EF8BF21F5BA
:0100AF00222E
:030000000200CC2F
:0C00CC00787FE4F6D8FD75810C0200037B
:10007200BB010689828A83E0225002E722BBFE028C
:09008200E32289828A83E49322BF
:00000001FF
