:1009B400256868753A256868753A2568687500255C
:1009C4003032752C253032752C253032750054495F
:1009D4004D453A003078256868783A30782568685B
:1009E400783A307825686878006E6F6461746100C5
:060BD70002230000C10929
:060788008B518A528953D7
:10078E007564FF7565097566B475670075680075E3
:10079E006954756A00756B00756C56756D00756ED3
:1007AE0000756F581203DD7564FF7565097566C3B4
:1007BE0085546785556885566985576A85586B8552
:1007CE00596C7B007A00795A12005FE4FDFF120B20
:1007DE003D7BFF7A0979D2120A5B7D06E4FF120B8C
:1007EE003D7B007A00795A120A5B7564FF756509C4
:1007FE007566D8756700756800756954756A0075F9
:10080E006B00756C56756D00756E00756F58AB513B
:10081E00AA52A9531203DDAF55AD57AB59020AF7D1
:0C0BAC00758920758DFD759850D28E2241
:0B0BB8003098FDC298859922D20922D6
:050BDE00D2B6C2B622F0
:0A0BC300EF4E6003D2B422C2B42248
:040A2900AD07AC0663
:100A2D00E4FBFAAF037E007401A807088005C33309
:100A3D00CE33CED8F9FFEE5CFEEF5DFF120BC31285
:0D0A4D000BDE0BBB00010AEB64084A70D6FB
:010A5A002279
:1009F4009000007E00120A29E4FDFCE583C313F590
:100A040083E58213F58230B40543828080065382E5
:100A14007F758300120BDE0DBD00010CED64084CE4
:040A240070D9AF8254
:010A280022AB
:100B5100A905D2B57E00120A29AF017E00120A2929
:030B6100C2B522F8
:10091800D2B57FBF7E00120A29E4FDFCE4F583F519
:1009280082FBFAE583C313F583E58213F58230B4BD
:1009380005438280800653827F758300120BDE0B8D
:10094800BB00010AEB64084A70D9ED25E02425F8BC
:10095800A68308A6820DBD00010CED64084C70BC8E
:02096800C2B516
:01096A00226A
:100AD300C2B5C2B6E4FD7F8E120B517DAB7F90127F
:100AE3000B517F811209F4EF54816007E4FD7F808D
:030AF300120B5192
:010AF60022DD
:100AF7008F618D62AF03AD077F80120B51AD627FAF
:0B0B070082120B51AD617F84020B5184
:100B12008F51E551C4540F2430FF120B89E5515413
:070B22000F2430FF020B89D4
:10096B00E4FDFF120B3D7D06E4FF120B3DAF2A1297
:10097B000B127F3A120B897F0A7E00120AB37D0994
:10098B00E4FF120B3DAF28120B127F3A120B897F3B
:10099B000A7E00120AB37D0CE4FF120B3DAF261248
:0909AB000B127F0A7E00020AB360
:1008BA00120B29120AD3120BAC120BB8300944E5F9
:1008CA0022646E702D743D2524F8E4F6E53DB47477
:1008DA00E87F80120B777FE87E03120AB37B007AE7
:1008EA0000793E120788D2B5120918C2B512096BEF
:1008FA0080F4743D2524F8A6220524E52470BA055F
:0E090A002380B67BFF7A0979ED120A5B80AB81
:100B29007F38120B777F0C120B777F01120B777FBF
:040B390080020B77B4
:100B77008F80C2A5C2A6120AADC2A77F0A7E000255
:020B87000AB3AF
:100B89008F80C2A5D2A6120AADC2A77F0A7E000233
:020B99000AB39D
:060A5B008B618A628963D1
:100A6100E4F564F565AB61AA62A963856582856475
:100A710083120676FF600D120B890565E56570E549
:040A8100056480E1A7
:010A8500224E
:100B3D00EF7007ED2480F5618005ED24C0F561AF00
:040B4D0061020B77BF
:060AAD00D2A77F0A7E00C3
:100AB300E4FDFCC3ED9FEC9E5015E4FBFA0BBB0079
:0F0AC300010AEB64704A70F50DBD00010C80E470
:010AD2002201
:0300000002082EC5
:0C082E00787FE4F6D8FD75817A02087529
:10067600BB010CE58229F582E5833AF583E0225039
:1006860006E92582F8E622BBFE06E92582F8E22283
:0D069600E58229F582E5833AF583E493229D
:10000300E5702464F8E605702278613007027864AD
:10001300E475F00112071E0206A32000EB7F2ED227
:10002300008018EF540F2490D43440D4FF30040BD5
:10003300EF24BFB41A0050032461FFE57160021579
:10004300710574E5747002057330070D7861E4750A
:10005300F00112071EEF0206BC020A867403D207E0
:100063008003E4C207F5708B618A628963E4F571EA
:10007300F573F574E57160077F2012003E80F57516
:1000830072FFC201C200C202C203C205C206C20895
:1000930012000CFF700D3007057F0012004FAF7484
:1000A300AE7322B4255FC2D5C20412000CFF24D064
:1000B300B40A00501A75F00A787130D50508B6FFF6
:1000C3000106C6A426F620D5047002D20380D924E3
:1000D300CFB41A00EF5004C2E5D20402024FD2019A
:1000E30080C6D20080C0D20280BCD2D580BAD205ED
:1000F30080B47F2012003E2002077401B5710040D6
:10010300F1120003FF12003E020077D208D20680EC
:1001130095120003FB120003FA120003F94A4B7015
:100123000679207A037BFF20022EE571602A7E0088
:100133008E8275830012067660060EEE657270F08D
:10014300C2D5EBC0E0EAC0E0E9C0E0EE120296D00F
:10015300E0F9D0E0FAD0E0FB1206A3FF60AAEBC0FF
:10016300E0EAC0E0E9C0E012003ED0E02401F9D0AB
:10017300E03400FAD0E0FBE5720460DCD572D9808C
:10018300877BFF7A027992D202809C791080027970
:1001930008C206C2088008D2D5790A8004790AC247
:1001A300D5E572047002F572E4FAFDFEFF12000356
:1001B300FC7B08200113120003FD7B1030000A12A0
:1001C3000003FE120003FF7B20EC3382D592D5504F
:1001D30013C3E43000069FFFE49EFEE42001039D69
:1001E300FDE49CFCE4CBF8C201EC700CCFCECDCC8B
:1001F300E824F8F870F38017C3EF33FFEE33FEED16
:1002030033FDEC33FCEB33FB994002FB0FD8E9EBF6
:10021300300105F8D0E0C448B201C0E00AEC4D4E0D
:100223004F78207B0070C2EAB5720040BCC0E01278
:100233000298D0F0D0E0200104C4C0E0C4B201C0F1
:10024300F0120027D0F0D5F0EB02007712073E0141
:100253001453018E5800E54C00E14201924F019A7C
:0F02630044019A4900FA4301A0550184460184E1
:100272004501844703405000E92D00ED2E01102B6B
:1002820000F123010E2003292A00A94800000108D9
:100292003F3F3F00790AA2D5200314300509B91067
:1002A200020404B9080104A2D52006025001042068
:1002B20002689202B571005034C0E07F2030031909
:1002C2007F30A20272067205500F1202EFC202C202
:1002D20006C205C2087F30800F300503E9C0E01274
:1002E200003E300503D0E0F9D0E0B571CC300517FF
:1002F2007F30B9100C12003E7F583004077F78809F
:1003020003B9080312003E3002057F2D02003E7F32
:10031200202008F87F2B2006F322920280CF286E3D
:10032200756C6C2900D2011200033001F8C2017809
:100332007130D50108F60200A92D50434958120028
:10034200032403B405004001E490033B9312002F01
:0D035200743A12002FD20375710402018E5F
:10035F00E57630030104F823282464F8227861300D
:10036F0003027864E475F00112071E0206A360EC25
:10037F00C57A7002157914C57A200304FF020BE3C6
:10038F00786174FFF5F002072EFF020B64E57760CA
:10039F0006D577037F002220030F120B9BEF600817
:1003AF00057AE57A7002057922786112071512062F
:1003BF00A3FF60E97861E475F00112071E80DE1279
:1003CF0003A6EFC0E0120398D0E040F380A0D20361
:1003DF008002C2038B618A628963E4F578F576F552
:1003EF0079F57A757700C202C200C201C204120306
:1003FF006CFF7005AF787E0022B4253012036CFFBE
:10040F0024D0B40A00500C75F00AC577A42577F5EF
:10041F007780E924CFB41A00EF5002C2E5020642FA
:10042F00D20180D8D20080D4D20480D0EF120398AA
:10043F0050081203CEEF600E80A9EFC0E01203A6A2
:10044F00D0E06F609EEF607412037D80A71203A649
:10045F00EF6069E5777007057780031203A6EF60F9
:10046F001420040E12035FE475F00112071EEF1241
:10047F0006BCD577E62004040576057880BA12030A
:10048F009CEFC0E0120398D0E0500412037DE4FF0C
:10049F0020040E12035FE475F00112071EEF12061F
:1004AF00BCEF70DA20040405760578808BE5776061
:1004BF000205771203CE12039CEF70C6300304E4DB
:1004CF0012037DE57860030204037EFF7FFF222085
:1004DF00041174FFFCFDFEFF12035F1207151206D5
:1004EF00FB05760203F2D0E080D27900800A791002
:1004FF00800679088002790AD205E57760020577D0
:10050F00E9C0E01203CEEF60DD1203A6BF2D04D2C7
:10051F00028003BF2B091203CEEF60CA12039CD0D7
:10052F00E0B40A028033B40802802EBF3027700275
:10053F007408C205C0E012039CD0E0BF78028003AC
:10054F00BF58160577D577028007D57704D2058077
:10055F000B741080197002740ABF000AEFF8E4FCE4
:10056F00FDFEFF0205F5C0E0EF12037DD0E0F9E4D8
:10057F00FCFDFEFFE9C0E0ECC0E0EDC0E0EEC0E046
:10058F00EFC0E012039CEFF8D0E0FFD0E0FED0E028
:10059F00FDD0E0FCD0F0E8604DB461004007B47BC3
:1005AF00005002C2E524D0503DFA24F6500724F93A
:1005BF005034240AFAEAB5F000502BCFA9F0A42F3B
:1005CF00FF92D5E9C5F0CEA4A2D53EFE92D5E9C5DE
:1005DF00F0CDA4A2D53DFD92D5E9C5F0CCA4A2D50E
:0B05EF003CFCC205808EE8C0E0200448
:1005FA002A20050805783002031206ED12035F125D
:10060A000715057620000B20010DEE8FF01206CE9D
:10061A0080091206FB8004EF1206BCD0E012037DAB
:10062A000203F220041012035F1207150576E5791A
:10063A00857AF01206CE80E812073E04BC5304FD08
:10064A005804334C042F42040B4805014F05054456
:10065A00045C4304F94905055504DE4604DE4504F5
:0C066A00DE4704372A062D4E0000043B3A
:10083A000208BAE493A3F8E493A34003F68001F212
:10084A0008DFF48029E493A3F85407240CC8C333BF
:10085A00C4540F4420C8834004F456800146F6DF8E
:10086A00E4800B0102040810204080900BD7E47E3C
:10087A00019360BCA3FF543F30E509541FFEE49383
:10088A00A360010ECF54C025E060A840B8E493A34A
:10089A00FAE493A3F8E493A3C8C582C8CAC583CA75
:1008AA00F0A3C8C582C8CAC583CADFE9DEE780BE2D
:010BDD000017
:1006A300BB010689828A83E0225002E722BBFE0255
:0906B300E32289828A83E4932288
:1006BC00BB010689828A83F0225002F722BBFE011D
:0206CC00F32217
:1006CE00BB010A89828A83F0E5F0A3F0225006F777
:0F06DE0009A7F01922BBFE06F3E5F009F3192274
:0E06ED00C3E49FFFE49EFEE49DFDE49CFC221E
:1006FB00BB010789828A830207705005E9F802075C
:0A070B0064BBFE05E9F802077C223A
:09071500E6FB08E6FA08E6F92209
:10071E00FAE6FB0808E6F925F0F618E6CA3AF622DC
:10072E00FAE6FB0808E625F0F9F618E63AFAF6229C
:10073E00D083D082F8E4937012740193700DA3A34A
:10074E0093F8740193F5828883E47374029368605E
:06075E00EFA3A3A380DF5E
:100A8600EFB40A07740D120A91740A309811A899E6
:100A9600B8130CC2983098FDA899C298B811F630D0
:070AA60099FDC299F59922A8
:100B9B00100A0B120BCDBF0D027F0A020A86AF089B
:010BAB002227
:050BE3008F08D20A2278
:100B6400EFC394094005EF940E4003BF2003D380E4
:030B740001C32298
:0C076400ECF608EDF608EEF608EFF622C1
:0C077000ECF0A3EDF0A3EEF0A3EFF022FC
:0C077C00ECF208EDF208EEF208EFF222B9
:0A0BCD003098FDAF99C2987E002217
:00000001FF
