:1004DE0054454D50455241545552452049533A00CA
:0204EE006300A9
:0403B9000238000006
:03000B000201B738
:1001B700C0E0C0F0C083C082C0D075D000C000C00E
:1001C70001C002C003C004C005C006C0070539E569
:1001D700397002053864907004E5386401702A7F2D
:1001E700801205027BFF7A0479DE1203E87FC012D2
:1001F70005021202E0AF321203337BFF7A0479EE75
:100207001203E8753800753900AF3212043912004D
:100217000EE532C394204012C2957F027E0012047D
:1002270019D2957F027E00120419D295758CFC7540
:100237008A18D007D006D005D004D003D002D00149
:0D024700D000D0D0D082D083D0F0D0E032F3
:100458001204CA75A882758921759850758DFD7525
:0E0468008CFC758A18D28CD28E12037D80FB1C
:020003002E00CD
:0703BD00012D00022E0000DB
:10037D008531993099FDC2997F647E0012041985EB
:10038D002C993099FDC2997F647E00120419852B3A
:10039D00993099FDC2997F647E0012041975990AEE
:0C03AD003099FDC2997F647E00020419A3
:10049400D2B77F087E001204F7C2B77F417E0012F4
:0B04A40004F7D2B77F147E000204F7BB
:0704F0001204AF7F0A7E0039
:0B04F700EF1FAC0670011E4C70F622D7
:10047600E4FB7D08C2B7EBC313FBD2B730B7034327
:0D04860003807F047E001204F7DDE9AF0360
:010493002246
:0204AF00AD0797
:1004B1007B08C2B7ED1392B77F057E001204F7D215
:0804C100B7EDA2E713FDDBEA31
:0104C9002210
:1002E0001204947FCC1204AF7F441204F0120494E1
:1002F0007FCC1204AF7FBE1204F0120476752E007C
:100300008F2F1204768F2DEF7F00FEEF252FFFE554
:100310002E3EC4F854F0C8EFC4540F48F532FF7EA7
:10032000007C007D0912011A7D0512012CEF2420AA
:03033000F529228A
:10033300EF75F064842430F531EF75F06484E5F0F3
:1003430075F00A842430F52CEF75F00A84E5F02467
:1003530030F52BEFF52AC3952A2430F530AF31124F
:100363000514AF2C120514AF2B1205147BFF7A0072
:0A03730079031203E8AF300205140D
:1004CA007F381205027F0C1205027F011205027F96
:0404DA008002050295
:100502008F80C2A5C2A6120413C2A77F0A7E000270
:020512000419CA
:100514008F80C2A5D2A6120413C2A77F0A7E00024E
:020524000419B8
:0603E8008B338A348935D5
:1003EE00E4F536F537AB33AA34A935853782853631
:1003FE00831200EDFF600D1205140537E53770E529
:04040E00053680E14E
:0104120022C7
:06041300D2A77F0A7E0063
:10041900E4FDFCC3ED9FEC9E5015E4FBFA0BBB0019
:0F042900010AEB64704A70F50DBD00010C80E410
:0104380022A1
:1003C4000114000808000C000800040000141500C3
:1003D4003F0006005B004F0066006D007D000700D3
:0303E4007F006F28
:100439007D037C00EF601775F00A8474102DF8A60F
:0E044900F0EF75F00A84FFED1D70E91C80E6EF
:010457002282
:10000E0074102514F8E6B40A0040030200E09000D4
:10001E0023F82828730200410200520200620200F7
:10002E00720200820200920200A20200B20200C21C
:10003E000200D2E51425E02408F808E6F5A085169E
:10004E00800200E0E51425E02408F808E6F5A08516
:10005E001880807EE51425E02408F808E6F5A085D2
:10006E001A80806EE51425E02408F808E6F5A085D0
:10007E001C80805EE51425E02408F808E6F5A085CE
:10008E001E80804EE51425E02408F808E6F5A085CC
:10009E002080803EE51425E02408F808E6F5A085CA
:1000AE002280802EE51425E02408F808E6F5A085C8
:1000BE002480801EE51425E02408F808E6F5A085C6
:1000CE002680800EE51425E02408F808E6F5A085C4
:0F00DE0028800514E514D394034003E4F514229D
:03000000020254A5
:0C025400787FE4F6D8FD75813902029B2A
:1000ED00BB010CE58229F582E5833AF583E02250C8
:1000FD0006E92582F8E622BBFE06E92582F8E22212
:0D010D00E58229F582E5833AF583E493222B
:10011A00EF8DF0A4A8F0CF8CF0A428CE8DF0A42EF9
:02012A00FE22B3
:10012C00C2D5EC30E709B2D5E4C39DFDE49CFCEEEE
:10013C0030E715B2D5E4C39FFFE49EFE120162C303
:10014C00E49DFDE49CFC800312016230D507C3E4FE
:06015C009FFFE49EFE225D
:10026000020458E493A3F8E493A34003F68001F258
:1002700008DFF48029E493A3F85407240CC8C3339F
:10028000C4540F4420C8834004F456800146F6DF6E
:10029000E4800B01020408102040809003B9E47E42
:1002A000019360BCA3FF543F30E509541FFEE49363
:1002B000A360010ECF54C025E060A840B8E493A32A
:1002C000FAE493A3F8E493A3C8C582C8CAC583CA55
:1002D000F0A3C8C582C8CAC583CADFE9DEE780BE0D
:0103E7000015
:10016200BC000BBE0029EF8DF084FFADF022E4CC81
:10017200F875F008EF2FFFEE33FEEC33FCEE9DEC4A
:10018200984005FCEE9DFE0FD5F0E9E4CEFD22ED90
:10019200F8F5F0EE8420D21CFEADF075F008EF2FDA
:1001A200FFED33FD4007985006D5F0F222C398FDCB
:0501B2000FD5F0EA2268
:00000001FF
