:10014F001201641201703000FD120113E4F553F532
:05015F0054C20080F114
:0600190002530000C100CB
:0C016400758920758DFD759850D28E2293
:05017000D2AFD2AC2269
:030023000200B226
:0B00B200C0E0C0D075D000C000C00747
:1000BD0030984AC298AF99C3E5549431E5539400F2
:1000CD0050350554E55470020553142421F8A60744
:1000DD00C3E5549402E55394004022AF54741F2F8E
:1000ED00F8E6B40A1874202FF8E6B40D10D2007497
:0D00FD00212FF87600800675530075540021
:09010A00D007D000D0D0D0E032C3
:0301130075A0FFD5
:10011600E4F508F509AE08AF09E4FCFD7B507AC3A7
:10012600F9F8D3120003401DE4F50AF50B050BE5BB
:100136000B7002050A6405450A70F20509E50970A7
:05014600D4050880D083
:04014B00E4F5A02215
:03000000020026D5
:0C002600787FE4F6D8FD75815402006D6F
:10000300EB9FF5F0EA9E42F0E99D42F0EC6480C874
:0600130064809845F02214
:1000320002014FE493A3F8E493A34003F68001F294
:1000420008DFF48029E493A3F85407240CC8C333CF
:10005200C4540F4420C8834004F456800146F6DF9E
:10006200E4800B0102040810204080900019E47E15
:10007200019360BCA3FF543F30E509541FFEE49393
:10008200A360010ECF54C025E060A840B8E493A35A
:10009200FAE493A3F8E493A3C8C582C8CAC583CA85
:1000A200F0A3C8C582C8CAC583CADFE9DEE780BE3D
:01001F0000E0
:00000001FF
